:020000040800F2
:10000000F81400209D010008A91B00081D1B000812
:10001000A51B00089D030008751C000800000000D7
:10002000000000000000000000000000B11B0008FC
:10003000A103000800000000AD1B0008B51B00086C
:10004000B7010008B7010008B7010008B7010008B0
:10005000B7010008B7010008B7010008B7010008A0
:10006000B7010008B7010008B7010008B701000890
:10007000B7010008B7010008B7010008B701000880
:10008000B7010008B7010008B7010008B701000870
:10009000B7010008B7010008B7010008B701000860
:1000A000B7010008B7010008B7010008B701000850
:1000B000B7010008B7010008B7010008B701000840
:1000C000B7010008B7010008B7010008B701000830
:1000D000B7010008B7010008B7010008B701000820
:1000E000B7010008B7010008B7010008B701000810
:1000F000B7010008B7010008B7010008B701000800
:10010000B7010008B7010008B7010008B7010008EF
:10011000B7010008B7010008B7010008B7010008DF
:10012000B7010008B7010008B7010008B7010008CF
:10013000B70100080000000000000000B70100083F
:10014000B7010008B7010008B7010008B7010008AF
:10015000B7010008B7010008B7010008B70100089F
:10016000B7010008B7010008B7010008B70100088F
:10017000B7010008B70100080000000000000000FF
:10018000B7010008B7010008DFF80CD000F0A2F8B2
:1001900000480047951C0008F814002006488047D6
:1001A00006480047FEE7FEE7FEE7FEE7FEE7FEE75C
:1001B000FEE7FEE7FEE7FEE7611C00088901000894
:1001C0002DE9F05F0546002092469B46884606468C
:1001D000814640241BE0284641464746224600F01F
:1001E00069F853465A46C01A914110D31146184631
:1001F000224600F050F82D1A67EB01084F462246C0
:100200000120002100F047F817EB00094E41201EA5
:10021000A4F10104DFDC484631462A464346BDE8E6
:10022000F09F40EA01039B0703D009E008C9121FB1
:1002300008C0042AFAD203E011F8013B00F8013BA0
:10024000521EF9D27047D2B201E000F8012B491ECC
:10025000FBD270470022F6E710B513460A46044663
:100260001946FFF7F0FF204610BD30B50B4601469A
:1002700000202022012409E021FA02F59D4205D345
:1002800003FA02F5491B04FA02F52844151EA2F1EF
:100290000102F1DC30BD202A04DB203A00FA02F131
:1002A000002070479140C2F1200320FA03F3194364
:1002B00090407047202A04DB203A21FA02F0002106
:1002C000704721FA02F3D040C2F120029140084366
:1002D000194670471CB50948009009480190054629
:1002E000009C06E0E06840F0010394E807009847AE
:1002F0001034AC42F6D3FFF74BFF0000502000084B
:100300007020000810B50024C4F2020420464FF407
:100310008071012200F052FF282000F0E1FD20460C
:100320004FF48071002200F049FF3C2000F0D8FD1E
:1003300020464FF48071012200F040FF502000F071
:10034000CFFD20464FF48071002200F037FF3C20A3
:1003500000F0C6FD20464FF48071012200F02EFF10
:10036000782000F0BDFD20464FF48071002200F09F
:1003700025FF3C2000F0B4FD20464FF4807101229F
:1003800000F01CFFA02000F0ABFD20464FF4807170
:100390000022BDE8104000F011BF0000FEE70000A1
:1003A000704700002DE9F04741F2C007C2F2000794
:1003B00090463A78002A3DD0894641F240010646EF
:1003C000C0F3C620C2F20001085CC6F30221C84097
:1003D000C0072FD0BC6904E0BFF32F8F00220C466A
:1003E0005ABB00F05FFDA04216D2EFF3108272B646
:1003F000B969A14204D05AB1A1420DD11DE000BF9C
:100400003B69B86101333B61BFF35F8F002AF3D1D1
:1004100062B6A14211D000BF57E8061FA142DBD14E
:10042000BFF35F8F47E80602002AD7D1BFF35F8F83
:100430000122D4E70120BDE8F087B1B24FF00056A9
:1004400006EA99064FF080454FF0805305EA5805BB
:100450003144EFF3058203EAD003294440F2400C13
:1004600001EB030E002A4FF00702C2F2000C18BF86
:100470000EF5002E57E8011F4B1C47E80134002CF5
:10048000F8D1CBB20CEB031A564601F4706356F860
:100490000C1F4EEA033505E0BFF32F8F0021002922
:1004A000214613D14B0110D401F0004356E8004F10
:1004B0002B448C4243F07063EED146E800310029B2
:1004C000ECD1BFF35F8F0121E9E70023590105D487
:1004D000013ACFD107F10C0100201FE083F0004169
:1004E00001F0004220F0004029F0004328F00045D0
:1004F000104413442A44CAE90003CAF8082021F032
:10050000806007F10801BFF35F8F00BF56E8002F3E
:1005100046E80002002AF9D1012000BF51E8002F6F
:10052000013241E80023002BF8D1BDE8F08700003C
:100530002DE9F04F89B088460146B8F1000F4FF021
:10054000000000F0A082B2F5807F00F29C8241F2B0
:10055000C006C2F20006307800283DD0174641F2AE
:100560004002C1F3C620C2F20002105CC1F30222B5
:10057000D040C00730D0B5690C4604E0BFF32F8FE0
:1005800000220D4662BB00F08DFCA84216D2EFF3AC
:10059000108272B6B169A94204D05AB1A9420DD1F4
:1005A0001EE000BF3369B06101333361BFF35F8F79
:1005B000002AF3D162B6A94212D000BF56E8061F46
:1005C000A942DBD1BFF35F8F46E80602002AD7D1EC
:1005D000BFF35F8F0122D4E7012009B0BDE8F08F9F
:1005E000EFF305812246C0F20804002908BF94B247
:1005F0004FF08051002F58D0092F01EAD00B80F026
:1006000093800021CDE9061106A90546084641461A
:100610003A46FFF706FEDDE906AE4FF0005000EA6D
:100620009A004FF0804101EA5E0167F31240AC4648
:1006300000EB0109072700BF56E8010F411C46E8FF
:100640000112002AF8D140F24002C1B2C2F2000207
:1006500002EB0118414600F4706051F80C2F49EA92
:10066000003305E0BFF32F8F0022002A024616D187
:10067000500113D402F00040184440EA0B0551E841
:10068000000F2543904245F07065EBD141E80052E0
:10069000002AE9D1BFF35F8F0122E6E70025680158
:1006A00000F1B180013FC7D13AE001EAD00C4FF030
:1006B000070E00BF56E8011F4A1C46E80123002B25
:1006C000F8D140F24003CAB2C2F2000303EB0218B1
:1006D00001F47063414651F80C2F4CEA033505E0F4
:1006E000BFF32F8F0022002A3A4614D1530111D4B0
:1006F00002F000432B4451E8007F2343974243F02C
:100700004063EDD141E80032002AEBD1BFF35F8FA7
:100710000122E8E700235A016BD4BEF1010EC9D1D2
:1007200006F10C020020A7E1711C0397D1E84F2FBE
:10073000531CC1E8473F002FF8D14FF4E02101EAF4
:100740000249D8F80430D8F800204FF00051CDE924
:100750000623019201EA92014FF0804202EA53021D
:1007600011444FF0070ACDF814800293049100BFA2
:1007700056E8011F4A1C46E80123002BF8D140F23D
:100780004003CAB2C2F2000303EB021E7246049F8A
:1007900001F4706152F80C3F47EA013506E000BFF2
:1007A000BFF32F8F0023002B0B4619D1590115D40D
:1007B00003F000412944214341EA0B0752E8001F9E
:1007C00047EA0907994247F05068E9D142E80083B7
:1007D000002BE7D1BFF35F8F0123E4E74FF0000860
:1007E0005FEA481C1ED4BAF1010AC1D106F10C031C
:1007F00038E083F0004404F0004220F00040104450
:10080000C8E9000228E185F0004404F000402CF023
:1008100000422AF0004302440344C8E900232EF0BA
:10082000004218E1019D029F88F0004101F0004361
:1008300020F0004425F0004527F000471C441D44EB
:100840003B44CEE90045CEF8083021F0806106F146
:100850000803BFF35F8F00BF52E8007F42E8001734
:10086000002FF9D1059900BF53E8002F571C43E82A
:100870000072002AF8D1BCF1000F03D4002009B0A7
:10088000BDE8F08F4FF60172039D49EA020420F0A3
:1008900000400490083D092D01F108017BD3D1F8F7
:1008A00004E0D1F8008005914FF000504FF08041F6
:1008B00000EA980001EA5E0100EB010907220395B6
:1008C000CDE9068E56E8010F411C46E80113002BC6
:1008D000F8D140F24003C1B2C2F2000303EB011AA7
:1008E000554600F4706055F80C1F49EA003005E0E9
:1008F000BFF32F8F00210029394616D14B0113D4A5
:1009000001F000430344234355E8007F43EA0B030F
:100910008F4243F04063EBD145E800310029E9D133
:10092000BFF35F8F0121E6E700235FEA431C05D494
:10093000013AC7D106F10C001CE000BF83F0004073
:10094000049A00F0004128F000432EF000470A44CA
:100950000B443944CAE90023CAF8081020F080602B
:10096000BFF35F8F55E8001F45E800010029F9D16A
:1009700006F10800039D059950E8002F531C40E83C
:100980000032002AF8D10134BCF1000F4FF0000012
:100990003FF580AF77E00020CDE9060006A82A46A3
:1009A000FFF73FFCFF20C7F2FF10DDE906EC204017
:1009B0004FF0005140EA052001EA9E014FF08042CD
:1009C00002EA5C02084340EA0205072456E8010FE8
:1009D000411C46E80112002AF8D140F24002C1B29F
:1009E000C2F2000202EB0118414600F4706051F8B7
:1009F0000C7F45EA003005E0BFF32F8F0027002F62
:100A0000174616D17A0113D407F0004240EA0203D8
:100A100051E8002F43EA0B03BA4243F06063EBD185
:100A200041E80037002FE9D1BFF35F8F0127E6E7E8
:100A30000023580102D4013CC8D171E683F0004480
:100A4000049A04F000402EF0004302440344C8E935
:100A500000232CF000420244C8F8082024F08060F3
:100A600006F10802BFF35F8F51E8003F41E8000341
:100A7000002BF9D1012000BF52E8001F013142E8EC
:100A80000013002BF8D109B0BDE8F08F2DE9F04F2D
:100A900083B041F2C00A41F240068046C2F2000A29
:100AA0000020C2F2000689468AF800003046802104
:100AB000FFF7D0FB41F67871C0F6000118224FF61F
:100AC000FF7741F2210300BF0D7887EA05276FF019
:100AD000070500BF3CB238467F00002C48BF83EAC0
:100AE00040070135F6D3013A01F10101ECD1DAF802
:100AF000200042F26B71CEF2A511884208D1BAF8FB
:100B00000200B9B2884205D1DAF81C00451C04E0A5
:100B1000CAF82010AAF80270012540F24007012D02
:100B2000C2F200074FF00000CAF81C500ED18AF83C
:100B30000100CAE90100CAF80C0040F24000C2F20C
:100B400000004FF48051FFF785FB0AE03918CA68AE
:100B50001030530144BF22F04062CA60B0F5805F9C
:100B6000F4D100F0ABF9012D04460AD1002C4FF06E
:100B700000050CBF002000F09BF9CAE90450CAF838
:100B80001850002C00F0E680002001210022029481
:100B900005E000BF0130042802F1200211D028FA3C
:100BA00000F3DB07F6D0002302EBD30503F00707C1
:100BB000745D01FA07F701332743FF2B7755F3D113
:100BC000E8E7002031184A7F203042F08002802878
:100BD0004A77F7D1002002E02030802807D0402853
:100BE000FAD13118CA7F42F04002CA77F4E7CDF853
:100BF0000490DAF8185004E0BFF32F8F00220D465E
:100C000052BB00F04FF9A84218D2EFF3108272B62F
:100C1000DAF81810A94203D06AB1A9420ED11BE03C
:100C2000DAF81030CAF818000133CAF81030BFF3F0
:100C30005F8F002AF1D162B6A9420DD05AE8061F93
:100C4000A942D9D1BFF35F8F4AE80602002AD5D165
:100C5000BFF35F8F0122D2E7DAF81CE0DAF8144024
:100C60004FF080514FF0005201EAD00102EA9E029B
:100C70004FF0804303EA540311444FF6007601EB32
:100C8000030B0727C0F60076009400BF5AE8011F47
:100C90004A1C4AE80123002BF8D140F24003CAB2B3
:100CA000C2F2000303EB021C01F47062614651F8CA
:100CB0000C8F4BEA023504E0BFF32F8F0022C846A9
:100CC000A2B95FEA481210D408F0004251E8009F30
:100CD0002A44C14542EA0603EED141E80032002A27
:100CE000ECD1BFF35F8F0122E9E700235A0105D45D
:100CF000013FCBD1019C0AF10C001FE0009E83F064
:100D0000004202F0004320F000402EF0004726F0A1
:100D1000004618441F443344CCE90007CCF808309F
:100D2000BFF35F8F019C22F080620AF1080000BFD0
:100D300051E8003F41E80023002BF9D150E8001FA3
:100D4000013140E80012002AF8D1002C029C18BFA3
:100D500000F004F8204603B0BDE8F08F2DE9F04321
:100D600081B041F2C004C2F200042078002840F0B3
:100D7000948001202070A56905E000BFBFF32F8F8C
:100D800000220D4642BB00F08DF8A84216D2EFF3C8
:100D9000108272B6A169A94204D05AB1A9420DD1FC
:100DA0001AE000BF2369A06101332361BFF35F8FA5
:100DB000002AF3D162B6A9420ED000BF54E8061F44
:100DC000A942DBD1BFF35F8F44E80602002AD7D1E6
:100DD000BFF35F8F0122D4E74FF0805140F2400C07
:100DE0004FF6017301EAD00E4FF00709C2F2000C72
:100DF000C0F6007354E8011F4A1C44E80125002D89
:100E0000F8D1CAB20CEB021801F47062414651F8F5
:100E10000C5F4EEA023605E0BFF32F8F0025002D50
:100E2000154613D16A0110D405F0004751E8002F90
:100E30003744AA4247EA0307EED141E80075002D86
:100E4000ECD1BFF35F8F0125E9E700277A0105D4D4
:100E5000B9F10109CED104F10C0017E087F000428E
:100E600002F0004320F000401844C8E90003C8F82D
:100E7000083022F0806204F10800BFF35F8F00BFEA
:100E800051E8003F41E80023002BF9D150E8001F52
:100E9000013140E80012002AF8D1012001B0BDE87C
:100EA000F083000041F20400CEF2000000687047B9
:100EB00040F20400C2F20000006870474EF6FC5099
:100EC000CEF20000016841F08071016041F2000142
:100ED000CEF20001086840F0010201200A6070476C
:100EE000B0B5044600F08AF9054640F20800C2F2A7
:100EF00000000078611C18BF044400BF00F07EF9B8
:100F0000401BA042FAD3B0BD2DE9F04F85B0844616
:100F100000F13E4000F1FF704FEAB027092F0D4667
:100F2000CDF808C008D341F6DB70C0F60000AC2154
:100F300000F0A2FEDDF808C028680021B1EB104FD8
:100F400001D180B240B941F6DB70C0F60000AD219E
:100F500000F092FEDDF808C06868B0F5881F80F2E6
:100F60000881122800F21F81012101FA00F00F21EF
:100F7000C0F20601084200F016810CF12000019039
:100F800041F60040C4F202000821844508BF072151
:100F90004FF0010E4FF000084FF0000B4FF0000A29
:100FA000072F38BF394603910AE000BF0AF1010A52
:100FB0000BF1020BBAF1100F08F1040800F0D68013
:100FC00028680EFA0AF910EA0907EFD0686800F0FD
:100FD00003000138012825D8E86804280AD341F61F
:100FE000DB70C0F60000C02100F046FEDDF808C04E
:100FF0004FF0010EDCF80800032101FA0BF18843E1
:10100000E9686A6801FA0BF10843CCF80800DCF8DB
:101010000400C2F3001120EA090001FA0AF10843B2
:10102000CCF80400686800F00300032819D0A86811
:1010300003280AD341F6DB70C0F60000D12100F08E
:101040001BFEDDF808C04FF0010EDCF80C00032198
:10105000AA6801FA0BF1884302FA0BF10843CCF8B5
:101060000C00686800F00300022812D128690B28E0
:101070006CD26FF00300019C00EA5A00215808F07E
:101080001C020F232E699340994306FA02F2114382
:101090002150DCF8000003216A6801FA0BF1884353
:1010A00002F0030101FA0BF1084312F4403FCCF8BF
:1010B00000003FF47BAF002043F644010490C4F2EB
:1010C0000201086843F6004440F480400860086864
:1010D000C4F2010400F48040049004982AF0030054
:1010E0004FF608462044CFF6FF76815908F00C02EF
:1010F0000F2393409943039B03FA02F2114381515A
:10110000A068696840EA070243F60C46CB0258BF64
:1011100020EA0702A260C4F2010630688B0240EAAE
:10112000070258BF20EA0702326060688B0340EA7A
:10113000070258BF20EA070262602068C90340EA3C
:10114000070258BF20EA070222602FE70C2890D040
:101150000F288ED041F6DB70C0F60000DE2100F0D3
:101160008BFDDDF808C04FF0010E82E705B0BDE849
:10117000F08FB0F5081F0CDAB0F5881F3FF4FDAE14
:10118000B0F5901F3FF4F9AEB0F5041F3FF4F5AE93
:1011900009E03FF4F2AEB0F5441F3FF4EEAEB0F517
:1011A000481F3FF4EAAE41F6DB70C0F60000AE2106
:1011B00000F062FDDDF808C0DFE6000070B51546FE
:1011C0000C46064671B1022D07D341F6DB70C0F61E
:1011D00000004FF4CF7100F04FFD002D08BF240434
:1011E000B46170BD41F6DB70C0F6000040F29D11A5
:1011F00000F042FD022DE8D2EFE7000041F2F400DA
:10120000C2F200000068704740F2080041F2F401A9
:10121000C2F20000C2F2000100780A6810440860BF
:101220007047000080B543F60040C4F20200016838
:1012300041F400710160016841F48061016001685E
:1012400041F480710160032000F08CF80F2000F061
:1012500005F800F02BF8002080BD0000B0B540F28A
:101260000802C2F2000240F204011278C2F2000148
:101270004FF47A730968B3FBF2F20446B1FBF2F162
:10128000084600F035FC0F2C4FF001050CD858B97A
:101290004FF0FF3021460022002500F023F840F2F5
:1012A0000C00C2F2000004602846B0BD82B00020ED
:1012B00043F640010190C4F202014A6842F48042C0
:1012C0004A604A6802F480420192019A00900868DC
:1012D00040F080500860086800F08050009000984E
:1012E00002B0704770B515460E46102A044606D364
:1012F00042F21400C0F60000A82100F0BDFC102E40
:1013000006D342F21400C0F60000A92100F0B4FC9C
:101310004EF60C50CEF2000001684FF0FF33C1F3DF
:10132000022181F00702042A28BF0422033903FAAC
:1013300002F238BF002126EA02028A4003FA01F1D4
:1013400025EA0101114304F1604204F00F03090191
:1013500002F56442043B1844002C48BF00F10C0223
:10136000117070BD10B504460338052806D342F24B
:101370001400C0F60000902100F07EFC4EF60C50E8
:10138000CEF2000001684FF6FF02114064F30A211B
:1013900041F0806141F0FD71016010BD002804BF83
:1013A000012070472DE9F041044600680D460138E0
:1013B0000F2807D341F6A370C0F6000040F25A216F
:1013C00000F05AFC082D07D341F6A370C0F60000C8
:1013D00040F25B2100F050FC43F60808C4F202081A
:1013E000D8F8F80300F00700A84208D288F8F853AC
:1013F000D8F8F80300F00700A84240F0B080206859
:1014000081071FD5410705D5D8F8001041F4E051F8
:10141000C8F80010000705D5D8F8000040F4604077
:10142000C8F80000A0686FF0070101EB301108292F
:1014300080F0B580D8F80000A16820F0F0000843E3
:10144000C8F800002078C00764D1D8F8F80300F08D
:101450000700A84207D988F8F853D8F8F80300F035
:101460000700A8427BD12078400719D5E0686FF0CB
:10147000030101EBB02104290AD34FEAB02038B1AF
:1014800041F6A370C0F6000040F2C32100F0F4FB67
:10149000D8F80000E16820F4E0500843C8F80000E4
:1014A000207800071AD520696FF0030101EBB02105
:1014B00004290AD34FEAB02038B141F6A370C0F630
:1014C000000040F2CA2100F0D7FBD8F800002169E3
:1014D00020F4604040EAC100C8F8000000F06EF857
:1014E000D8F8001041F66872C1F30311C0F600028B
:1014F000515C40F2040220FA01F140F20C00C2F209
:1015000000000068C2F200021160FFF7A7FE002091
:10151000BDE8F0816068042807D341F6A370C0F6E7
:10152000000040F2852100F0A7FB6068811E0229BF
:1015300007D258F8081C89015CBF0120BDE8F08182
:1015400010E0012807D158F8081C89035CBF01206E
:10155000BDE8F08106E058F8081C890702D4012094
:10156000BDE8F081D8F8001021F003010843C8F865
:101570000000FFF743FE064641F28837D8F8000026
:10158000616800F00C00B0EB810F3FF45EAFFFF735
:1015900035FE801BB842F1D90320BDE8F0814FEA47
:1015A000301000283FF446AF41F6A370C0F60000AB
:1015B00040F27E2100F060FB3CE7000010B543F6EE
:1015C0000404C4F20204606800F00C0008280AD089
:1015D000042819BF42F20040C0F2F40047F6400070
:1015E000C0F27D1010BD206821682368490247F6CB
:1015F0004001C0F27D1100F03F02C3F388105CBFD0
:1016000042F20041C0F2F401A1FB00010023FEF709
:10161000D7FD21680222C1F3014102EB4101B0FB79
:10162000F1F010BD002804BF012070472DE9F04102
:1016300082B004460068102806D341F6A370C0F6B5
:101640000000E62100F018FB207843F60006C007F2
:10165000C4F202065BD06068002818BFB0F5803F76
:1016600021D1B06800F00C00042809D13068800353
:101670004DD5606800284AD1012002B0BDE8F08154
:10168000B06800F00C00082802D170684002EDD468
:1016900065683068B5F5A02F10D0B5F5803F14D13E
:1016A00040F4803017E0B0F5A02FDAD041F6A370F7
:1016B000C0F60000EB2100F0DFFAD2E740F4802012
:1016C0003060306840F4803005E020F480303060D5
:1016D000306820F480203060FFF790FD002D054633
:1016E00012D000BF3068800311D4FFF787FD401B84
:1016F0006428F7D9A4E100BFFFF780FD401B6428F0
:101700004FF0030000F2688130688003F4D4207841
:10171000800731D5E068022807D341F6A370C0F6F0
:10172000000040F21D1100F0A7FA2069202807D31D
:1017300041F6A370C0F600004FF48F7100F09CFAE0
:10174000B06810F00C0F09D0B06800F00C00082849
:1017500040F0B3807068400200F1AF8030688007CD
:1017600003D5E068012840F0CC803068216920F082
:10177000F80040EAC10030602078000744D42078A7
:10178000400762D4A069032807D341F6A370C0F6CE
:10179000000040F2CD1100F06FFAA06980B3B1688B
:1017A00001F00C01082940F0C380012800F0A98055
:1017B0007068E16900F480028A4240F0A280216AE8
:1017C00000F03F028A4240F09C8047F6C071626A96
:1017D0000140B1EB821F40F09480A16A4FF6FF7385
:1017E000C903994300F44032A1F580318A4240F0A8
:1017F0008880E16A00F07060B0EB016F40F081809A
:10180000002002B0BDE8F0816069022807D341F6EC
:10181000A370C0F600004FF4AF7100F02DFA6069BC
:10182000002872D06020C4F247200121C0F8201E99
:10183000FFF7E4FC054600BF706F80079FD4FFF7F9
:10184000DDFC401B0228F7D9FAE0A068052805D87E
:10185000012101FA00F010F0230F07D141F6A37027
:10186000C0F600004FF4C57100F006FA306C5FEA74
:10187000C0080AD400200190306C40F080503064E1
:10188000306C00F080500190019847F20007C4F2DC
:1018900000073868C00529D4386840F48070386083
:1018A000FFF7ACFC054600BF3868C0051ED4FFF743
:1018B000A5FC401B0228F7D9C2E0E068002840F2EE
:1018C0006000C4F2472000F08A80012140F8601CCB
:1018D000FFF794FC054600BF306880073FF545AF31
:1018E000FFF78CFC401B0228F6D9A9E0A568306FF1
:1018F000052D00F08780012D40F08B8040F0010025
:101900008DE0012002B0BDE8F0816020C4F24720E4
:101910000021C0F8201EFFF771FC0546706F80079C
:101920007FF52DAFFFF76AFC401B0228F6D987E050
:10193000022840F09C80E06940F48000B0F5800F00
:1019400007D041F6A370C0F600004FF4EB7100F031
:1019500093F9206A02383E2807D341F6A370C0F6F7
:10196000000040F2D71100F087F9606A3238B0F514
:10197000BF7F07D941F6A370C0F600004FF4EC71A9
:1019800000F07AF9A06A082800F2A880012101FA83
:1019900000F010F4AA7F00F0A180E06A02380E285F
:1019A00007D341F6A370C0F600004FF4ED7100F0CC
:1019B00063F96027C4F2472700203860FFF71EFC58
:1019C000054600BF3068800166D5FFF717FC401B55
:1019D00002284FF00300F5D902B0BDE8F0810021E4
:1019E00040F8601CFFF70AFC054600BF306880071E
:1019F0007FF5C2AEFFF702FC401B02284FF0030048
:101A0000F4D9E9E740F004003067306F40F001009E
:101A100005E020F001003067306F20F004003067EF
:101A2000FFF7ECFB002D054641F2883713D000BFCD
:101A3000306F800712D4FFF7E1FB401BB842F7D9A3
:101A4000032002B0BDE8F081FFF7D8FB401BB8428D
:101A50004FF00300C0D8306F8007F5D4B8F1000F05
:101A60003FF590AE306C20F0805030648AE6602004
:101A7000C4F2472000210160FFF7C0FB044600BF0D
:101A8000306880017FF5BCAEFFF7B8FB001B022871
:101A90004FF00300F4D99FE704F11C052FCD084354
:101AA00040EA8210D9034FF6FF729143A1F58031CD
:101AB00040EA05600843706001203860FFF79EFB34
:101AC000044600BF306880013FF59AAEFFF796FBF1
:101AD000001B02284FF00300F4D97DE741F6A37004
:101AE000C0F6000040F2D91100F0C6F855E700003A
:101AF000411E0020B0EB116F1CBF012070474EF259
:101B00001002CEF2000251604EF62351CEF20001D7
:101B1000F0230B700721906011607047FEE7000012
:101B2000F0B587B0002643F630000696CDE904668E
:101B3000CDE902660196C4F202000168002441F07A
:101B4000800101600168C4F2020401F0800101918A
:101B5000019901960168002241F0010101600068CD
:101B60004FF4F87100F00100019001982046FFF752
:101B700025FB10200290022002AD0127059020468F
:101B80002946CDE90376FFF7BFF94FF4F070CDE9B0
:101B9000020720462946CDE90466FFF7B5F907B0EC
:101BA000F0BD0000FEE70000FEE700007047000007
:101BB00070470000FFF728BB70B592B006AC204616
:101BC0003021FEF747FB002543F640000595CDE99F
:101BD0000355CDE901550095C4F2020001680226C3
:101BE00041F080510160006800F080500090009842
:101BF00047F200000095C4F20000016841F4804102
:101C00000160006800F48040009000980120099075
:101C100010200A9008200E90A820CDE90F0604207D
:101C2000119020460696CDE90C65FFF7FBFC10B13C
:101C300072B600BFFEE70F20CDE901064FF4A050B9
:101C400004904FF48050059001A805210395FFF7FB
:101C5000A5FB10B172B600BFFEE712B070BD000068
:101C60004EF68850CEF20000016841F47001016028
:101C700070470000FEE700007047000040F20002DD
:101C8000C2F2000291421CBF4FF0FF30704700F0DB
:101C90007BB8000000240F200121C4F20204FEF7EB
:101CA000F5FEFFF75BF8FFF7BDFAFFF785FFFFF7DB
:101CB00037FFFEF727FB41F6907541F2F007C0F6BB
:101CC0000005C2F200072FA60BE000BF38682946C6
:101CD00000281CBF013838604EF620707822FEF7CD
:101CE00061FB4FF46F4029466322FEF75BFB204601
:101CF00010210122FFF762FA204680210022FFF71F
:101D00005DFA5020FFF7ECF8204620210122FFF772
:101D100055FA204610210022FFF750FA5020FFF715
:101D2000DFF8204640210122FFF748FA2046202113
:101D30000022FFF743FA5020FFF7D2F82046802117
:101D40000122FFF73BFA204640210022FFF736FA36
:101D50003220FFF7C5F839680029B7D0304600F0C7
:101D600039F820464FF480710122FFF727FA14203A
:101D7000FFF7B6F820464FF480710022FFF71EFAF5
:101D8000A4E700BF25640A00B0B541F2EC04C2F23A
:101D900000042168072984BF4FF0FF30B0BD41F235
:101DA000E4034A1CC2F200030A28226058541CBFF4
:101DB000082AB0BD4FF6006341F2E401C0F202030D
:101DC000C2F2000105461846FEF7B2FB2846002184
:101DD0002160B0BD0FB4054B10B503A9044A0298A9
:101DE00000F018F810BC5DF814FB00007D1C000822
:101DF0000000002002E008C8121F08C1002AFAD122
:101E000070477047002001E001C1121F002AFBD17A
:101E1000704700002DE9FF4F89B09B46044600251E
:101E200006E025280BD05A460B999047641C6D1C80
:101E300020780028F5D10DB02846BDE8F08F0027A6
:101E4000B8460122474900E0074314F8013F203B10
:101E500002FA03F00842F7D120782E2819D114F89D
:101E6000010F47F004072A280ED06FF02F022078C8
:101E7000A0F1300109290CD808EB880102EB4101DF
:101E800000EB0108641CF2E70A98641C50F8048B0C
:101E90000A9020780028CED0642808D0692806D07F
:101EA00075281ED05A460B9990476D1C58E00A9928
:101EB0004FF00A0901C90A91002802DA40422D2197
:101EC00002E0390504D52B218DF82010012103E013
:101ED000F90704D02021F7E78A4608AE0DE000217B
:101EE000FAE70A994FF00A0901C90A91F7E749464A
:101EF000FEF7BBF9303106F8011D0028F7D1ADEB34
:101F0000060000F12009780701D44FF00108C84508
:101F100002DDA8EB090000E000208046002706E073
:101F200008A85A46C05D0B9990476D1C7F1C574509
:101F3000F6DB04E030205A460B9990476D1CB8F14F
:101F40000001A8F10108F5DC05E016F8010B5A467E
:101F50000B9990476D1CB9F10001A9F10109F4DC5E
:101F6000641C65E709280100000000000000000073
:101F70000102030406070809010001010001000035
:101F80004000002040100020C01000200000000091
:101F90002E2E2F436F72652F5372632F6D61696E02
:101FA0002E63002E2E2F447269766572732F535460
:101FB0004D3332463478785F48414C5F44726976DD
:101FC00065722F5372632F73746D33326634787871
:101FD0005F68616C5F7263632E63002E2E2F447204
:101FE00069766572732F53544D3332463478785F77
:101FF00048414C5F4472697665722F5372632F7348
:10200000746D3332663478785F68616C5F677069CD
:102010006F2E63002E2E2F447269766572732F53D4
:10202000544D3332463478785F48414C5F4472698E
:102030007665722F5372632F73746D333266347802
:10204000785F68616C5F636F727465782E630000FF
:10205000802000080000002040000000F41D00085F
:10206000C020000840000020B8140000041E000832
:102070000000000000000000000000000000000060
:10208000000000000024F400010000001000000027
:102090000000000000000000000000000000000040
:1020A0000000000000000000000000000000000030
:1020B0000000000000000000000000000000000020
:040000050800018965
:00000001FF
