:020000040800F2
:10000000400B00209D010008912F0008A12C000842
:100010008D2F000879080008A935000800000000AD
:100020000000000000000000000000009D2F0008FC
:100030009508000800000000952F0008A12F000877
:10004000B7010008B7010008B7010008B7010008B0
:10005000B7010008992F0008B7010008B701000890
:10006000B7010008B7010008B7010008B701000890
:10007000B7010008B7010008B7010008B701000880
:100080007D08000889080008B7010008B7010008CA
:10009000B7010008B7010008B7010008B701000860
:1000A000B7010008B7010008B7010008B701000850
:1000B0006530000871300008B7010008B70100087A
:1000C000B7010008B7010008B7010008B701000830
:1000D000B7010008913500089D350008B7010008F8
:1000E000B7010008B7010008B7010008B701000810
:1000F0007D300008B7010008B7010008B70100080B
:10010000B7010008B7010008B7010008B7010008EF
:10011000B7010008B7010008B7010008B7010008DF
:10012000B7010008B7010008B7010008B7010008CF
:10013000B70100080000000000000000B70100083F
:10014000B7010008B7010008B7010008B7010008AF
:10015000B7010008B7010008B7010008B70100089F
:10016000B7010008B7010008B7010008B70100088F
:10017000B7010008B70100080000000000000000FF
:10018000B7010008B7010008DFF80CD000F01EFB33
:1001900000480047CD350008400B00200648804746
:1001A00006480047FEE7FEE7FEE7FEE7FEE7FEE75C
:1001B000FEE7FEE7FEE7FEE7513000088901000890
:1001C0002DE9F05F0546002092469B46884606468C
:1001D000814640241BE0284641464746224600F01F
:1001E0002DF953465A46C01A914110D3114618466C
:1001F000224600F014F92D1A67EB01084F462246FB
:100200000120002100F00BF917EB00094E41201EE0
:10021000A4F10104DFDC484631462A464346BDE8E6
:10022000F09FD2B201E000F8012B491EFBD27047CB
:100230000022F6E710B513460A4604461946FFF7B2
:10024000F0FF204610BD2DE9FE4F804681EA0300F5
:10025000C00F0C46009021F0004123F00045B8EBA0
:100260000200A94105D24046214690461C460B4655
:10027000024623F00040104347D0270DC7F30A0081
:10028000C3F30A510290401A019040286BDAC3F37D
:10029000130040F4801B0098924620B10023D2EB5B
:1002A000030A63EB0B0B01985946C0F1400250461C
:1002B00000F0B5F806460D4650465946019A00F042
:1002C000CDF810EB08006141002487EA115284EA5E
:1002D000E7731A4340D0009A62B3019A012A4FEAA9
:1002E000075215DC001B61EB02014FF0004202EAED
:1002F0000752CDE90042001C41F5801132462B46E1
:1003000000F004F903B0BDE8F08F40462146F9E75C
:10031000001B61EB0201001C41F5801300185B41DA
:100320002018A2F5001747EB030140EAD570B61973
:100330006D4111E06D084FEA360645EAC0754FEA97
:100340000752001B61EB0201001C41F580114908B6
:100350004FEA30000019514132462B4603B0BDE848
:10036000F04F00F0C4B80098012240000023D0EB09
:10037000020263EBE073009821464FEAE074B8EBA9
:10038000000061EB0401E9E783F000435BE781F0E3
:10039000004158E700F0004230F000400AD0C10DA3
:1003A00001F56071C0F3160042EA0151C20840072E
:1003B0001143704700200146704701F0004330B4FC
:1003C00021F0004150EA010206D00A0DA2F5607248
:1003D000C1F31301002A02DC30BC00207047440F37
:1003E00044EAC104C100E01830BC00EBC25000F088
:1003F00047B830B50B46014600202022012409E011
:1004000021FA02F59D4205D303FA02F5491B04FACD
:1004100002F52844151EA2F10102F1DC30BD202AAC
:1004200004DB203A00FA02F1002070479140C2F14B
:10043000200320FA03F3194390407047202A04DB7D
:10044000203A21FA02F00021704721FA02F3D0404D
:10045000C2F120029140084319467047202A06DB6A
:10046000CB17203A41FA02F043EAE07306E041FA82
:1004700002F3D040C2F12002914008431946704770
:100480000029A8BF7047401C490008BF20F00100A8
:10049000704710B4B0FA80FC00FA0CF050EA010486
:1004A00004BF10BC704749B1CCF1200421FA04F418
:1004B00011FA0CF118BF012121430843A3EB0C01F1
:1004C000CB1D4FEA00614FEA102042BF002010BC54
:1004D000704700EBC35010440029A4BF10BC704704
:1004E000401C490008BF20F0010010BC704710B547
:1004F000141E73F1000408DA401C41F10001921847
:100500005B411A4301D120F0010010BD2DE9F04DEF
:1005100092469B4611B1B1FA81F202E0B0FA80F244
:1005200020329046FFF77BFF04460F4640EA0A0060
:1005300041EA0B0153465A46084313D0114653EA89
:10054000010019D0C8F140025046FFF777FF054679
:100550000E46504659464246FFF761FF084305D014
:10056000012004E020463946BDE8F08D0020054317
:1005700046EAE0762C4337430A986305E40AA0EB89
:1005800008000022FD0A44EA47540A3002D5002040
:100590000146E9E7010510196941DDE9084500193F
:1005A0006941BDE8F04DA2E72DE9FE4F81EA030461
:1005B00004F0004421F0004100944FF0000B23F0C0
:1005C000004350EA01045ED052EA03045BD0C3F357
:1005D0000A54C1F30A552C44A4F2F3340194A0FB4D
:1005E0000254C1F3130141F48011C3F3130343F424
:1005F000801301FB024400FB034E840A970A44EA7D
:10060000815447EA8357A4FB076802958D0A05FBCE
:1006100007854FEA932C04FB0C542705029D4FEAF3
:10062000065847EA1637B5EB08056EEB070C870E40
:10063000920E47EA811742EA8312A7FB0201B6EB4A
:100640000B0164EB00042B0D43EA0C335E1844EB02
:100650001C50DA465146E7FB0201C5F313044FEA8A
:100660000B3343EA14534FEA0432019C43EA060376
:10067000A4F10C040294009CCDE900B4FFF746FFFE
:1006800003B0BDE8F08F00200146F9E72DE9F04DF9
:1006900081EA030404F0004B21F0004514464FF0BA
:1006A000000A23F0004150EA050220D054EA01027A
:1006B0001DD0C5F30A570246C5F31303C1F3130057
:1006C000C1F30A5640F4801543F48013A7EB0608E3
:1006D000101BD64608F2FD3873EB050002D308F173
:1006E000010801E092185B41B8F1000F03DA002025
:1006F0000146BDE8F08D00204FF480110646844687
:100700000EE0171B73EB050705D3121B63EB050304
:1007100006434CEA010C49084FEA300092185B414D
:1007200050EA0107EDD152EA030012D082EA040038
:1007300083EA0501084305D0101BAB4106D2012214
:10074000002306E000224FF0004302E06FF00102B8
:1007500053101AEB06004CEB085110EB0A0041EB6A
:100760000B01BDE8F04DFFF7C2BEC1F30A52C1F361
:10077000130140F2FF3341F480119A4202DA002063
:100780000146704740F233439A42A2F2334202DC00
:100790005242FFF753BEFFF742BE000030B5041EC1
:1007A00071F1000404DB4FF00044404264EB0101AE
:1007B000141E73F1000405DB1C464FF00043524247
:1007C00063EB0403994208BF904230BD1CB5094851
:1007D0000090094801900546009C06E0E06840F062
:1007E000010394E8070098471034AC42F6D3FFF7B2
:1007F000CFFC0000444A0008644A00080EB5C10F4F
:1008000080EAE0700844CA07002140F233438DE8D3
:100810000E000A460B46FFF779FE03B000BD0EB589
:1008200040F2334102910021CDE900110A460B4606
:10083000FFF76CFE03B000BD70B5C1F30A5201F0C2
:1008400000450024C1F3130140F2FF3341F480114D
:100850009A4201DA002070BD40F233439A42A2F27C
:10086000334203DC5242FFF7E9FD00E090402C43A5
:10087000F1D0404270BD0000FEE7000040F24000B1
:10088000C2F2000000F054BB40F2A000C2F200002F
:1008900000F04EBB7047000072B600BFFEE70000DC
:1008A0002DE9F04740F20077C2F2000790463A780F
:1008B000002A3DD0894640F280610646C0F3C6203A
:1008C000C2F20001085CC6F30221C840C0072FD065
:1008D000BC6904E0BFF32F8F00220C465ABB00F026
:1008E000B7FAA04216D2EFF3108272B6B969A142EC
:1008F00004D05AB1A1420DD11DE000BF3B69B861DF
:1009000001333B61BFF35F8F002AF3D162B6A1428E
:1009100011D000BF57E8061FA142DBD1BFF35F8FA4
:1009200047E80602002AD7D1BFF35F8F0122D4E740
:100930000120BDE8F087B1B24FF0005606EA9906F3
:100940004FF080454FF0805305EA58053144EFF3EE
:10095000058203EAD003294440F2802C01EB030E08
:10096000002A4FF00702C2F2000C18BF0EF5002E4D
:1009700057E8011F4B1C47E80134002CF8D101F067
:100980003F030CEB031A564601F4707356F80C1F24
:100990004EEA833506E000BFBFF32F8F0021002908
:1009A000214613D14B0110D401F0004356E8004F0B
:1009B0002B448C4243F07063EED146E800310029AD
:1009C000ECD1BFF35F8F0121E9E70023590105D482
:1009D000013ACDD107F10C0100201FE083F0004166
:1009E00001F0004220F0004029F0004328F00045CB
:1009F000104413442A44CAE90003CAF8082021F02D
:100A0000806007F10801BFF35F8F00BF56E8002F39
:100A100046E80002002AF9D1012000BF51E8002F6A
:100A2000013241E80023002BF8D1BDE8F087000037
:100A30002DE9F04F83B040F2007A40F280668046A4
:100A4000C2F2000A0020C2F2000689468AF80000BD
:100A500030468021FFF7ECFB44F61021C0F6000180
:100A600018224FF6FF7741F2210300BF0D7887EA85
:100A700005276FF0070500BF3CB238467F00002C09
:100A800048BF83EA40070135F6D3013A01F101017D
:100A9000ECD1DAF8200042F26B71CEF2A511884257
:100AA00008D1BAF80200B9B2884205D1DAF81C00C0
:100AB000451C04E0CAF82010AAF80270012540F293
:100AC0008027012DC2F200074FF00000CAF81C5029
:100AD0000ED18AF80100CAE90100CAF80C0040F200
:100AE0008020C2F200004FF48061FFF7A1FB0AE012
:100AF0003918CA681030530144BF22F04062CA60FE
:100B0000B0F5806FF4D100F0AFF9012D04460AD1A1
:100B1000002C4FF000050CBF002000F09FF9CAE93F
:100B20000450CAF81850002C00F0E8800020012181
:100B30000022029405E000BF0130042802F12002E7
:100B400011D028FA00F3DB07F6D0002302EBD3051F
:100B500003F00707745D01FA07F701332743FF2B02
:100B60007755F3D1E8E7002031184A7F203042F072
:100B7000800280284A77F7D1002002E020308028C8
:100B800007D04028FAD13118CA7F42F04002CA7714
:100B9000F4E7CDF80490DAF8185004E0BFF32F8F93
:100BA00000220D4652BB00F053F9A84218D2EFF3D1
:100BB000108272B6DAF81810A94203D06AB1A942BD
:100BC0000ED11BE0DAF81030CAF818000133CAF869
:100BD0001030BFF35F8F002AF1D162B6A9420DD069
:100BE0005AE8061FA942D9D1BFF35F8F4AE806022F
:100BF000002AD5D1BFF35F8F0122D2E7DAF81CE0DB
:100C0000DAF814404FF080514FF0005201EAD00161
:100C100002EA9E024FF0804303EA540311444FF668
:100C2000007601EB030B0727C0F60076009400BFA7
:100C30005AE8011F4A1C4AE80123002BF8D140F270
:100C4000802301F03F02C2F2000303EB021C01F417
:100C50007072614651F80C8F4BEA823505E000BF97
:100C6000BFF32F8F0022C846A2B95FEA481210D402
:100C700008F0004251E8009F2A44C14542EA0603B9
:100C8000EED141E80032002AECD1BFF35F8F0122A0
:100C9000E9E700235A0105D4013FC9D1019C0AF1BB
:100CA0000C001FE0009E83F0004202F0004320F0A1
:100CB00000402EF0004726F0004618441F443344FD
:100CC000CCE90007CCF80830BFF35F8F019C22F01D
:100CD00080620AF1080000BF51E8003F41E80023AC
:100CE000002BF9D150E8001F013140E80012002A22
:100CF000F8D1002C029C18BF00F004F8204603B085
:100D0000BDE8F08F2DE9F04381B040F20074C2F2EB
:100D100000042078002840F0968001202070A5690A
:100D200005E000BFBFF32F8F00220D4642BB00F04D
:100D30008FF8A84216D2EFF3108272B6A169A942C9
:100D400004D05AB1A9420DD11AE000BF2369A061B5
:100D500001332361BFF35F8F002AF3D162B6A9424A
:100D60000ED000BF54E8061FA942DBD1BFF35F8F4E
:100D700044E80602002AD7D1BFF35F8F0122D4E7EF
:100D80004FF0805140F2802C4FF6017301EAD00EF3
:100D90004FF00709C2F2000CC0F6007354E8011FBF
:100DA0004A1C44E80125002DF8D101F03F020CEB6C
:100DB000021801F47072414651F80C5F4EEA823617
:100DC00006E000BFBFF32F8F0025002D154613D17D
:100DD0006A0110D405F0004751E8002F3744AA42B9
:100DE00047EA0307EED141E80075002DECD1BFF3CF
:100DF0005F8F0125E9E700277A0105D4B9F10109E0
:100E0000CCD104F10C0017E087F0004202F000435F
:100E100020F000401844C8E90003C8F8083022F068
:100E2000806204F10800BFF35F8F00BF51E8003F0C
:100E300041E80023002BF9D150E8001F013140E8C0
:100E40000012002AF8D1012001B0BDE8F0830000B3
:100E500041F20400CEF200000068704740F2080042
:100E6000C2F20000006870474EF6FC50CEF200005F
:100E7000016841F08071016041F20001CEF2000191
:100E8000086840F0010201200A60704770B5866D65
:100E9000044600F0E5FA94F83510022925D10546FC
:100EA0002068216C026822F016020260426922F07A
:100EB0008002426109B9A16C19B1016821F00801F1
:100EC0000160016821F00101016000BF2068006835
:100ED000C0070ED000F0C4FA401B0628F6D320202D
:100EE0006065032084F835000CE0802060650120F7
:100EF00008E0E06D3F2101FA00F0B060012084F8C5
:100F000035000020002184F8341070BD90F83510B1
:100F1000022909D1052180F835100068016821F007
:100F20000101016000207047802141650120704768
:100F3000F0B581B00021009140F20801C2F2000139
:100F40000B68D0E9166148F2B51537680822C1F67A
:100F50004E358A403A42A3FB05350CD003681C6825
:100F6000640708D51C6824F004041C60B260426D5C
:100F700042F00102426501228A403A4208D00368E9
:100F80005B691B0604D5B260426D42F00202426505
:100F900004228A403A4208D003681B689B0704D5A4
:100FA000B260426D42F00402426510228A403A4229
:100FB00016D001680B681B0712D5B2600B680A686F
:100FC0005B0306D4D20506D40A6822F008020A6040
:100FD00001E011033FD4016C11B10446884720465B
:100FE000C26D202101FA02F33B4241D001680F6833
:100FF000FF063DD5B36090F835700B68052F1AD108
:1010000023F016030B604B6923F080034B61036CE4
:101010000BB9836C1BB10B6823F008030B603F21F5
:101020009140B160012180F83510016D002280F8F7
:101030003420D9BB3EE00A685B0310D4D20512D439
:101040000A6822F010020A60012180F835100021A0
:1010500080F8341007E0816C0029BED1C0E711038D
:1010600001D4416C00E0C16B11B1044688472046B1
:10107000416DF9B1416DC90716D0052180F83510D1
:101080000168AA0A0B6823F001030B60009B01337F
:101090009342009302D80B68DB07F7D1012180F857
:1010A0003510002180F83410C16C19B101B0BDE8D1
:1010B000F040084701B0F0BD2DE9F041044600F0D2
:1010C000CFF9C4B10546022084F83500002021681C
:1010D00084F83400086820F0010008602068016886
:1010E000C9070BD000F0BCF9401B0528F6D9032135
:1010F000202203207AE00120BDE8F081016848F257
:101100003F02CFF21002D4E9013501EA020ED4E920
:10111000032143EA0E032B43D4E9056C1A43D4E9B7
:1011200007781143314341EA0702616A42EA080243
:10113000042942EA0C0303D1D4E90B273A431343B1
:1011400003604269042922F0070241EA02012DD11D
:10115000D4E90A5341EA050143B3BCF5005F08D066
:10116000BCF1000F12D1022D16D0012D07D09DB178
:1011700019E0032D17D8DFE805F00B0F0B02A3F1E0
:10118000C072B2FA82F252094AB90FE0032D02D2BC
:10119000012222B90AE006D1C3F3006232B1012173
:1011A0004022012022E00022002AF8D100F0F802BB
:1011B0004AF6AB23103ACAF6AA23A2FB033744F639
:1011C000282341613909C0F60003595C40F2FF331E
:1011D00098435F2A4FF03F0288BF0430C4E91601EC
:1011E00002FA01F18160002201210020626584F889
:1011F0003510BDE8F081000090F834C0BCF1010F5B
:1012000004BF0220704770B54FF0010C80F834C065
:10121000D0F858E090F835C0BCF1010F37D14FF04D
:10122000020C80F835C04FF0000CC0F854C0D0F864
:1012300000C08468056CC06DDCF80060402C26F4AA
:101240008026CCF80060CCF804300B4604BF13466F
:101250000A463F2101FA00F0CCF80830CCF80C2007
:10126000CEF80800DCF8000040F01600CCF80000D2
:101270002DB1DCF8000040F00800CCF80000DCF8EC
:10128000000040F00100CCF80000002070BD0021FB
:1012900080F83410022070BDB0B5044600F0E0F8CC
:1012A000054640F20C00C2F200000078611C18BF35
:1012B000044400BF00F0D4F8401BA042FAD3B0BDF4
:1012C0002DE9F04F83B000F1200200F13E4741F6D6
:1012D0000045009207F1FF77C4F2020508224FEAA9
:1012E000B726A84208BF0722072E38BF4FEAB72209
:1012F00000274FF0000A4FF0000801920AE000BFFB
:1013000008F101080AF1020AB8F1100F07F1040709
:1013100000F09D800D68012202FA08FC15EA0C0914
:10132000EED04D68032205F0030BABF10106012E50
:1013300002FA0AFE10D88668CC6826EA0E0604FA7D
:101340000AF4344384604468C5F3001524EA0C06AB
:1013500005FA08F52E434660BBF1030F1BD0C668A3
:101360008D6826EA0E0605FA0AF52E43BBF1020F38
:10137000C66010D16FF00302009D02EA580655F8CE
:1013800006C007F01C040F220B69A2402CEA0202DF
:10139000A3401A43AA5102684B6822EA0E0203F0E6
:1013A000030606FA0AF6324313F4403F0260A7D060
:1013B000002243F644030292C4F202031A6843F681
:1013C000004442F480421A601A68C4F2010402F434
:1013D00080420292029A28F003024FF6084C2244FF
:1013E000CFF6FF7C52F80C3007F00C060F25B54005
:1013F000AB43019D05FA06F6334342F80C30A26870
:101400004B6842EA090643F60C4CDD0258BF22EA5B
:101410000906A660C4F2010CDCF800209D0242EA35
:10142000090658BF22EA0906CCF8006062689D03ED
:1014300042EA090658BF22EA090666602268DB0311
:1014400042EA090658BF22EA0906266058E703B0B7
:10145000BDE8F08F002A08BF0904816170470000D1
:1014600040F23870C2F200000068704740F20C0091
:1014700040F23871C2F20000C2F2000100780A683E
:10148000104408607047000080B543F60040C4F285
:101490000200016841F400710160016841F480615B
:1014A0000160016841F480710160032000F0C2F81E
:1014B0000F2000F005F800F059F8002080BD000072
:1014C000B0B586B0002543F644010195C4F202018F
:1014D0000A68044642F002020A60096801A801F0A5
:1014E000020101910199694600F064F900F096F952
:1014F0004DF683614000C4F21B31A0FB01014FF0A7
:10150000FF3000EB914140F2901040F20042C2F2F5
:101510000000C4F2010240F2E733C0E90021C0E953
:1015200002530561856100F0D1FB08B106B0B0BD82
:1015300040F29010C2F2000000F030FC0028F5D11B
:1015400005462C2000F038F80F2C0CD82C20214612
:10155000002200F043F840F21000C2F200000460E4
:10156000284606B0B0BD012006B0B0BD80B582B03F
:10157000002043F640010190C4F202014A6842F49F
:1015800080424A604A6802F480420192019A0090C7
:101590000868002240F0805008600868002100F0D0
:1015A000805000900098052000F018F8052002B047
:1015B000BDE88040AFF30080002848BF704700F0CE
:1015C0001F01012202FA01F11C2202EAD0004EF2B0
:1015D0000012CEF2000281507047000010B54EF6A6
:1015E0000C5CCEF2000CDCF80030C3F3022E8EF05F
:1015F0000704042C28BF0424BEF103034FF0FF3E70
:101600000EFA04F438BF0023A14399400EFA03F305
:101610009A43114300F1604200F00F03090102F503
:101620006442043B6344002848BF03F10C0211707C
:1016300010BD00004EF60C51CEF200010A684FF6C4
:10164000FF031A4060F30A2242F0806040F0FD7010
:1016500008607047002804BF012070472DE9F04161
:1016600043F60808C4F202080446D8F8F8030D4609
:1016700000F00700884207D288F8F853D8F8F8033A
:1016800000F00700A84276D12068810717D54107EE
:1016900005D5D8F8001041F4E051C8F80010010752
:1016A00005D5D8F8001041F46041C8F80010D8F80A
:1016B0000010A26821F0F0011143C8F80010C00723
:1016C0003FD1D8F8F80300F00700A84207D988F8FE
:1016D000F853D8F8F80300F00700A8424BD120686F
:1016E000410707D5D8F80010E26821F4E051114312
:1016F000C8F80010000708D5D8F80000216920F4C8
:10170000604040EAC100C8F8000000F09BF8D8F83B
:10171000001044F6F812C1F30311C0F60002515C48
:1017200040F2080220FA01F140F21000C2F200007B
:101730000068C2F200021160FFF7C2FE0020BDE89F
:10174000F0816068811E022907D258F8081C8901BF
:101750005CBF0120BDE8F08110E0012807D158F8F6
:10176000081C89035CBF0120BDE8F08106E058F841
:10177000081C890702D40120BDE8F081D8F80010C8
:1017800021F003010843C8F80000FFF769FE064690
:1017900041F28837D8F80000616800F00C00B0EB27
:1017A000810F8ED0FFF75CFE801BB842F2D9032078
:1017B000BDE8F0810F22026043F60802C4F2020283
:1017C000136803F003034360136803F0F0038360BE
:1017D000136803F4E053C360D2F800C04FF4E05341
:1017E00003EADC030361D2F8F80300F007000860A5
:1017F0007047000040F2080043F60801C2F2000002
:10180000C4F202010068096844F60822C1F382218B
:10181000C0F60002515CC8407047000040F208006A
:1018200043F60801C2F20000C4F202010068096830
:1018300044F60822C1F34231C0F60002515CC840B0
:101840007047000010B543F60404C4F20204606857
:1018500000F00C0008280AD0042819BF42F200400A
:10186000C0F2F40047F64000C0F27D1010BD2068C1
:1018700021682368490247F64001C0F27D1100F05B
:101880003F02C3F388105CBF42F20041C0F2F40192
:10189000A1FB00010023FEF793FC21680222C1F3A3
:1018A000014102EB4101B0FBF1F010BD002804BF83
:1018B000012070472DE9F04182B00446007843F6DC
:1018C0000006C007C4F2020649D0B06800F00C0060
:1018D000042809D13068800341D5606800283ED1D2
:1018E000012002B0BDE8F081B06800F00C000828CB
:1018F00002D170684002EDD465683068B5F5A02F5C
:1019000005D0B5F5803F09D140F480300CE040F4BB
:1019100080203060306840F4803005E020F4803072
:101920003060306820F480203060FFF799FD002D92
:10193000054611D03068800311D4FFF791FD401B9C
:101940006428F7D928E100BFFFF78AFD401B64280F
:101950004FF0030000F2E08030688003F4D4207878
:1019600080071BD5B06810F00C0F09D0B06800F0EC
:101970000C00082840F085807068400200F18180EA
:101980003068800703D5E068012840F09A8030680D
:10199000216920F0F80040EAC1003060207800079B
:1019A00034D42078400746D4A5695DB3B06800F010
:1019B0000C00082840F09C80012D00F082807068A7
:1019C000E16900F480028A427BD1216A00F03F0283
:1019D0008A4276D147F6C071626A0140B1EB821F3C
:1019E0006FD1A16A4FF6FF73C903994300F44032E7
:1019F000A1F580318A4264D1E16A00F07060B0EBF9
:101A0000016F5ED1002002B0BDE8F081606900285E
:101A10005BD00020C4F247200121C0F8801EFFF7F0
:101A20001FFD0546706F8007BBD4FFF719FD401BF3
:101A30000228F7D9B0E0306C5FEAC0080AD4002071
:101A40000190306C40F080503064306C00F0805079
:101A50000190019847F20007C4F200073868C005FA
:101A600026D4386840F480703860FFF7F9FC0546EA
:101A70003868C0051CD4FFF7F3FC401B0228F7D9D7
:101A80008AE0E068002840F20000C4F2472053D00A
:101A900001210160FFF7E4FC054600BF30688007C4
:101AA0003FF575AFFFF7DCFC401B0228F6D973E069
:101AB000A568306F052D51D0012D56D140F00100A1
:101AC00059E0012002B0BDE8F0810020C4F24720B7
:101AD0000021C0F8801EFFF7C3FC0546706F800729
:101AE0007FF55FAFFFF7BCFC401B0228F6D953E03F
:101AF0000027C4F2472700203866FFF7B1FC022D0B
:101B000005460DD1306880015DD5FFF7A9FC401B6B
:101B100002284FF00300F5D902B0BDE8F08100BF04
:101B2000306880017FF56EAFFFF79AFC401B0228FA
:101B30004FF00300F4D9EFE700210160FFF790FCBC
:101B4000054600BF306880077FF528AFFFF788FCA7
:101B5000401B02284FF00300F4D9DDE740F00400F9
:101B60003067306F40F0010005E020F00100306781
:101B7000306F20F004003067FFF772FC002D05463F
:101B800041F2883713D000BF306F800712D4FFF7BF
:101B900067FC401BB842F7D9032002B0BDE8F081D2
:101BA000FFF75EFC401BB8424FF00300B4D8306F23
:101BB0008007F5D4B8F1000F3FF5F6AE306C20F099
:101BC00080503064F0E604F11C052FCD084340EA54
:101BD0008210D9034FF6FF729143A1F5803140EA9C
:101BE00005600843706001203866FFF739FC044641
:101BF000306880013FF506AFFFF732FC001B02287A
:101C00004FF00300F4D987E77047000070470000E9
:101C100090F83C20012A4FF0020255D010B5012364
:101C200080F83C3080F83D200268D2F804E0D2F819
:101C300008C00C682EF07003234341F2FF74C4F215
:101C40000004A24253600DDC40F2FF73C4F20003B3
:101C50009A4215DCB2F1804F29D040F20043C4F221
:101C6000000322E040F2FF33C4F201039A4212DC87
:101C700041F60003C4F200039A4218D0002312E098
:101C800040F60003C4F200039A4210D040F600432D
:101C9000C4F2000309E044F20003C4F201039A42D3
:101CA00005D040F20043C4F201039A4204D14968CE
:101CB0002CF08003194391600121002280F83D102F
:101CC00080F83C20BDE8104010467047002804BF53
:101CD0000120704710B5044690F83D0028B9002057
:101CE00084F83C00204600F01FF8022084F83D00F4
:101CF0002068211D01F0C8F9012084F8460084F80D
:101D00003E0084F83F0084F8400084F8410084F8E5
:101D1000420084F8430084F8440084F8450084F8C5
:101D20003D00002010BD000010B582B0006840F2F8
:101D30000041C4F20001884213D0B0F1804F2BD192
:101D40000020019043F64000C4F2020001681C2408
:101D500041F001010160006800F00100019001986C
:101D60000FE00020009043F64000C4F2020001683A
:101D70001D2441F002010160006800F002000090A3
:101D80000098204600210022FFF728FC204602B0E0
:101D9000BDE81040FFF710BC02B010BD90F83D1038
:101DA00001291CBF01207047022180F83D10006806
:101DB00041F2FF72C168C4F20002904241F0010199
:101DC000C1600DDC40F2FF71C4F20001884215DCF5
:101DD000B0F1804F29D040F20041C4F2000122E06E
:101DE00040F2FF31C4F20101884212DC41F60001E9
:101DF000C4F20001884218D0002112E040F6000130
:101E0000C4F20001884210D040F60041C4F2000143
:101E100009E044F20001C4F20101884205D040F219
:101E20000041C4F20101884206D1816801F0070136
:101E3000062904BF00207047016841F001010160DC
:101E40000020704790F83C20012A4FF002026ED02B
:101E500080B5012380F83C3080F83D20D0F800C0E8
:101E60004FF67772DCF8083023EA0202CCF808203B
:101E70000B684F2B28DC1F2B44DD202B45D0302B4B
:101E800043D0402B40F0AC80D1F804E0C968DCF8C6
:101E90002030DCF8202022F00102CCF82020DCF8F1
:101EA000182022F0F00242EA011123F00A0242EA6D
:101EB0000E02CCF81810CCF82020DCF8081041F005
:101EC000470121F0300127E06F2B32DDB3F5005FD1
:101ED00073D0B3F5805F21D0702B40F08180D1E9C1
:101EE00001E3C968DCF8082043EA0E0322F47F42CC
:101EF00043EA01211143CCF80810DCF8081041F046
:101F0000770109E00BB1102B6AD1DCF8081021F041
:101F10007001194341F00701CCF80810002201219B
:101F200080F83D10002180F83C10BDE8804010464C
:101F30007047502B21D0602B52D1D1F804E0C968F2
:101F4000DCF82030DCF8202022F01002CCF8202031
:101F5000DCF8182022F4704242EA013123F0A0029A
:101F600042EA0E12CCF81810CCF82020DCF8081049
:101F700041F0670121F01001CEE7D1F804E0C96813
:101F8000DCF82030DCF8202022F00102CCF8202000
:101F9000DCF8182022F0F00242EA011123F00A02D4
:101FA00042EA0E02CCF81810CCF82020DCF8081019
:101FB00041F0570121F02001AEE7D1E901E3C96802
:101FC000DCF8082043EA0E0322F47F4243EA0121B1
:101FD0001143CCF80810DCF8081041F480419BE76D
:101FE00001229CE77047000070B504460068C56890
:101FF0000669B10716D515F0020113D06FF0020182
:102000000161012121778069800703D02046FFF715
:10201000E9FF05E0204600F08DF8204600F0C8F901
:1020200000202077700718D515F0040015D020681F
:102030006FF00401016102212177806910F4407F73
:1020400003D02046FFF7CEFF05E0204600F072F8EF
:10205000204600F0ADF900202077300717D515F0A5
:10206000080014D020686FF0080101610421217775
:10207000C069800703D02046FFF7B4FF05E0204683
:1020800000F058F8204600F093F900202077F00681
:1020900018D515F0100015D020686FF010010161FF
:1020A00008212177C06910F4407F03D02046FFF754
:1020B00099FF05E0204600F03DF8204600F078F951
:1020C00000202077F00718BF15F0010002D130067C
:1020D00009D412E020686FF001010161204600F090
:1020E000F7F9300609D515F0800006D020686FF0AA
:1020F000800101612046FFF787FD700609D515F0C4
:10210000400006D020686FF040010161204600F0D9
:102110002BFAB00658BF70BD15F0200008D021681A
:102120006FF0200220460A61BDE87040FFF76EBDE7
:1021300070BD00007047000090F83C30012B04BFD8
:10214000022070474FEAB2020123032A80F83C3094
:1021500000F2F8802DE9F043DFE802F002AF3D7DA8
:10216000036840F200461C6A1A6A24F0020422F056
:1021700001021A621A46D3F804C052F818EF8F68A9
:1021800043F48065C4F20106B54244EA070405D170
:10219000CF6824F00C0427F004073C430F68B542D5
:1021A00006D1D1E905582CF440762E4346EA080CB6
:1021B0002EF073063743C3F804C09F614F68096966
:1021C0005F631C629F6947F008079F619F6927F062
:1021D00004079F61B0E0036840F200481C6A1A6A75
:1021E00024F4007422F480721A621A46D3F804C0F0
:1021F00052F81CEF8F6843F48065C4F2010845452E
:1022000044EA072408D1CF6840F2FF463F0224F495
:10221000406427EA06063443D1F80090454506D1CC
:10222000D1E905562CF440572E4347EA061C2EF000
:10223000730747EA0907C3F804C0DF614F680969FB
:10224000DF631C62DF6947F00807DF61DF6927F0A1
:102250000407DF6170E0036840F20045D3F820C056
:102260001A6A43F4806722F480521A621A465C6844
:1022700052F81C8FD1F800E08E68C4F20105AF421D
:1022800004D14D6924F4804444EA85142CF40057A9
:1022900047EA063728F4E64646EA0E265C60DE6129
:1022A0004E6809691E641F62DF6947F40067DF61D9
:1022B000DF6927F48067DF613DE0036840F2004892
:1022C0001C6A1A6A24F0200422F010021A621A46CC
:1022D000D3F804C052F818EF8F6843F48065C4F255
:1022E0000108454544EA071407D1CF686FF040065E
:1022F00024F0C00406EA07163443D1F8009045459F
:1023000006D1D1E905562CF440672E4347EA860CE6
:102310002EF4E64747EA0927C3F804C09F614F68D7
:1023200009699F631C629F6947F400679F619F6909
:1023300027F480679F610902136819430023116025
:10234000BDE8F043002180F83C10184670470000BB
:10235000002804BF0120704710B5044690F83D00E6
:1023600028B9002084F83C00204600F01FF8022025
:1023700084F83D002068211D00F086FE012084F8CD
:10238000460084F83E0084F83F0084F8400084F85A
:10239000410084F8420084F8430084F8440084F843
:1023A000450084F83D00002010BD0000704700008B
:1023B000704700004122082908BF4022042908BFB5
:1023C0003F22002908BF3E22825C012A1CBF012057
:1023D0007047022241B1082909D0042914BF80F8AE
:1023E000412080F83F2004E080F83E2001E080F8A2
:1023F0004020006801F01F010122036A02FA01F186
:1024000023EA01020262026A0A4341F2FF71C4F246
:102410000001884202620BDC40F2FF71C4F200014D
:10242000884213DCB0F1804F45D040F2004115E006
:1024300040F2FF32C4F20102904214DC41F6000384
:10244000C4F20003984236D0002314E040F60001A5
:10245000C4F2000188422ED040F60041C4F20001CF
:10246000884228D02EE044F20003C4F201039842CF
:1024700021D040F20043C4F20103984222D1436CC0
:10248000884243F400434364C6DD904207DC41F6D2
:102490000001C4F2000188420DD0002107E044F29F
:1024A0000001C4F20101884205D040F20041C4F2AB
:1024B0000101884206D1816801F00701062904BFA5
:1024C00000207047016841F0010101600020704761
:1024D00070B500240546C4F202040068A4F57C41EE
:1024E000884208BFFEF7C2FF2868B0F1804F00D0D5
:1024F00070BD40F26825C2F2000528681021B0FACC
:1025000080F042092046FEF7A5FF28682021013807
:10251000B0FA80F042092046FEF79CFF286840F29E
:102520002476013000EBD07121F00101C2F20006E7
:10253000401A31682860481C04293060B8BF70BD5B
:1025400044F63024C0F600044FF46F402146CF22F9
:10255000FEF7A6F94EF620702146D122FEF7A0F92B
:102560000020306070BD0000704700007047000020
:1025700070470000B0B582B001680A68CC684B694A
:1025800002F02F05202D04F0200505D125B102B061
:10259000BDE8B04000F0D6BE5FEA027C1EBF03F08B
:1025A000010E04F4907313EB0E0340D1036BD506B8
:1025B00018D5012B16D114F0100313D0002201926C
:1025C0000A6801924A680192019A4969490647D40A
:1025D000818DC28DC38D002B18BF914240F01A81AE
:1025E00002B0B0BD13062AD514F0800327D090F8AE
:1025F0004120212AF4D18268B2F5805F03D10269BB
:10260000002A00F03A81026A531C036212784A6081
:10261000C28C013A1304C284E2D1C86820F0800061
:10262000C860C86840F04000C86002B0B0BDD107C3
:1026300018BF14F4807167D151076BD471E0520652
:10264000CED514F04002CBD0CA6822F04002CA6056
:10265000202180F8411002B0BDE8B04000F01CBB62
:10266000C26B116849688BB2002B42D0858DAB429A
:102670003FD2C185D169B1F5807F33D0016851E87F
:10268000031F026821F4807142E80313002BF5D187
:10269000016851E8051F026821F0010142E80513B5
:1026A000002BF5D1016851E8051F026821F04001B7
:1026B00042E80513002BF5D1202180F842100021BB
:1026C000016300BF016851E8031F026821F0100197
:1026D00042E80313002BF5D1C16B04460846FEF710
:1026E000D5FB204602214163818DC28D891A89B2B2
:1026F000B9E0818D99427FF473AFD269B2F5807FE2
:102700007FF46EAF0222ADE0416C41F00101416403
:10271000510706D5BEF1000F03D0416C41F0020114
:102720004164910706D5BEF1000F03D0416C41F022
:1027300004014164BCF1000F06D55EEA050103D037
:10274000416C41F008014164416C00293FF448AFFD
:10275000910604D51DB1044600F0F4FD2046016841
:102760004969426C01F0400102F0080289184AD020
:10277000016851E8031F026821F4907142E80313D5
:10278000002BF5D1016851E8051F026821F0010115
:1027900042E80513002BF5D1016B01290AD100BFD6
:1027A000016851E8031F026821F0100142E8031399
:1027B000002BF5D1202180F842100021016301682F
:1027C0004969490654D500BF016851E8051F0268F0
:1027D00021F0400142E80513002BF5D1C16B00291F
:1027E00046D043F2B512C0F60002044608460A6518
:1027F000FEF78CFB00283FF4F3AEE06B016D02B0F6
:10280000BDE8B04008470446FFF7B2FE0020606410
:1028100002B0B0BD891A00BF026852E8032F0368F6
:1028200022F4907243E80325002DF5D1026852E8A6
:10283000052F036822F0010243E80525002DF5D19C
:10284000202280F842200022026300BF026852E882
:10285000032F036822F0100243E80325002DF5D171
:10286000022289B2426302B0BDE8B040FFF77EBEEB
:1028700002B0BDE8B040FFF77BBE026A32F8023B0F
:102880006FF35F234B600262C2E60000002804BFC2
:102890000120704710B5044690F8410028B9002087
:1028A00084F84000204600F021F8242084F84100FC
:1028B0002068C16821F40051C160204600F0A2FDEB
:1028C0002068016921F490410161416921F02A01E8
:1028D0004161C16841F40051C16000202021606461
:1028E00084F8411084F84210606310BD2DE9F04F68
:1028F00087B00446006844F20041C4F2000100279A
:102900008842CDE90577CDE90377029743D041F2BC
:102910000001C4F20101884240F0BA80002043F671
:1029200030010190C4F202014A69002442F0100211
:102930004A614A694FF0020802F010020192019ABE
:1029400001900A68C4F2020442F001020A600968B8
:1029500002AD01F00101019101994FF40071029162
:10296000CDE90380032707262046294605970696CA
:10297000FEF7A6FC4FF48060CDE902080120CDE906
:102980000407204629460696FEF79AFC25200121D9
:102990000022252477E043F630000197C4F20200BC
:1029A0000169002541F4003101610169C4F20205A9
:1029B00001F40031019101990197016802AE41F0E3
:1029C00001010160006846F2880800F001000190F2
:1029D0000198042002904FF002094FF0030A4FF0D3
:1029E000070B28463146C4F20208CDE90397CDF81B
:1029F00014A0CDF818B0FEF763FC0820CDE9020959
:102A0000012004A981E8010C28463146FEF758FC54
:102A100040F2A00508F11800C2F200054FF0006670
:102A20004021C5E9000605F108004FF4806980E8FF
:102A300082022846C5E90577C5E907776F62FEF788
:102A40003BFB002818BFFDF727FFA563AC6340F2EE
:102A50004005C2F200050020C5E90200C5E9049066
:102A6000C5E90600C5E908002846C5E90086FEF765
:102A700023FB002818BFFDF70FFFE563AC6326209A
:102A8000002100222624FEF7A9FD2046FEF794FD32
:102A900007B0BDE8F08F000090F84230202B1CBF3B
:102AA0000220704700294FF0010318BF002A01D10E
:102AB000184670470023036300F014BD006844F219
:102AC0000041C4F20001884218BF704740F22870EC
:102AD000C2F200000178A5290DD1C1795A290AD185
:102AE00080B5411C40F22020C2F20000062200F016
:102AF00089F8BDE8804040F2202040F22871C2F2FF
:102B00000000C2F200010822FFF7C6BF70470000B4
:102B10002DE9F04381B0044690F84100202809D106
:102B2000884600294FF0010018BF002A06D101B0E5
:102B3000BDE8F083022001B0BDE8F08300206064AE
:102B400021201D4684F841001646FEF789FCA68424
:102B5000E684A1680646B1F5805F02D120690028AD
:102B60004DD0C1464FF00008E08C40B36F1C0BE025
:102B7000B9F1000F1AD019F8010B21684860E08CF8
:102B80000138E084E08CD0B1206800680006EFD402
:102B9000002FF9D0FEF764FC01464FF0030045B367
:102BA000891BA94225D82068C068EDE738F8020BD8
:102BB00021686FF35F2048604FF00009DFE720686D
:102BC0000068400614D46F1C04E000BF2068006851
:102BD00040060DD4002FF9D0FEF742FC01464FF01D
:102BE000030035B1891BA94203D82068C068EDE70E
:102BF0000020202184F8411001B0BDE8F0834FF09F
:102C00000009B1E7B0B590F84140202C1CBF02206C
:102C1000B0BD134600294FF0010218BF002B01D1AF
:102C20001046B0BD4FF0000C212401628384C384A0
:102C3000C0F844C080F8414002680446806B43F20B
:102C4000FD2E43F23D35C0F6000EC0F60005C0E98A
:102C50000FE543F2C115C0F600050432C0E9135C6C
:102C6000FEF7CAFA30B110206064202084F84100D9
:102C70000120B0BD20686FF040010160206850E87D
:102C8000050F216840F0800041E80502002AF5D1D7
:102C900000221046B0BD00007047000070470000E1
:102CA000FEE7000080B582B00020019043F63000BE
:102CB000C4F202000168002241F4001101600068C2
:102CC000002100F40010019001981020FEF786FC0E
:102CD0001020FEF771FC112000210022FEF77EFC7F
:102CE000112002B0BDE88040FEF766BC70B586B02A
:102CF000002543F630000595CDE90355CDE9015592
:102D00000095C4F202000168002441F080010160D6
:102D10000168C4F2020401F080010091009900955D
:102D20000168002241F0010101600068302100F0DB
:102D300001000090009820463026FEF78BFB012012
:102D4000CDE9020501A9204601960495FEF7B8FADF
:102D500006B070BD80B586B040F200100021C2F20E
:102D600000004FF0804242F2CF0342F20F7CCDE9E7
:102D70000411CDE90211CDE90011C0E90023C0E939
:102D8000021C01618161FEF7A1FF002818BFFDF759
:102D900083FD4FF48050029040F20010C2F2000018
:102DA00002A9FFF74FF8002818BFFDF775FD0020B6
:102DB000CDE9000040F20010C2F200006946FEF7C3
:102DC00027FF002818BFFDF767FD40F20010C2F290
:102DD0000000FEF7E3FF06B080BD000070B594B0C0
:102DE00040F2481040F200450021C2F2000040F2DB
:102DF000E733C4F200050D91CDE90B11CDE90911BE
:102E0000CDE90711CDE90511CDE90311CDE9011196
:102E10005322C0E9021301618021C0E9005281619F
:102E2000FEF754FF002818BFFDF736FD4FF4805021
:102E30000A9040F24810C2F200000AA9FFF702F817
:102E4000002818BFFDF728FD40F24810C2F200002C
:102E5000FFF77EFA002818BFFDF71EFD40F248106C
:102E60000024C2F2000008A9CDE90844FEF7D0FE14
:102E7000002818BFFDF710FD6020CDE9010440F2E5
:102E80004810C2F2000001A9002203940594FFF744
:102E900053F9002818BFFDF7FFFC40F24814C2F2B6
:102EA000000401A920460422FFF746F9002818BFB4
:102EB000FDF7F2FC204600210026FFF77BFA2046B2
:102EC0000421FFF777FA20681396A842CDE911662E
:102ED00010960F9601D014B070BD43F630000E96D8
:102EE000C4F20200016841F00101016000680FA90D
:102EF00000F001000E900E98C0200F900220CDE946
:102F00001006CDE9126005F5FE30FEF7D9F914B0D0
:102F100070BD000080B540F2D81041F20001C2F24D
:102F20000000C4F2010100234FF00C0C4FF4E13219
:102F300080E80E00C0E90333C0E905C3C361FFF7B1
:102F4000A5FC002808BF80BDBDE88040FDF7A4BCFB
:102F500080B540F2202044F20041C2F20000C4F2E9
:102F6000000100234FF00C0C4FF4E13280E80E001A
:102F7000C0E90333C0E905C3C361FFF787FC00283C
:102F800008BF80BDBDE88040FDF786BCFEE70000BD
:102F9000FEE7000070470000704700007047000027
:102FA0007047000070B592B006AC20463021FDF7A6
:102FB0003FF9002543F640000595CDE90355CDE9DD
:102FC00001550095C4F202000168022641F08051CB
:102FD0000160006800F080500090009847F2000007
:102FE0000095C4F20000016841F48041016000686E
:102FF00000F4804000900098012006904FF480304B
:1030000007904FF480000D9019200E904FF4A87097
:10301000CDE90F060420119020460C96FEF746FCE1
:1030200008B172B6FEE70F20CDE901064FF4A050BB
:1030300004904FF48050059001A805210395FEF7F8
:1030400009FB10B172B600BFFEE712B070BD000000
:103050004EF68850CEF20000016841F47001016024
:103060007047000040F20010C2F20000FEF7BCBF43
:1030700040F24810C2F20000FEF7B6BF40F29010D6
:10308000C2F20000FEF7B0BFB0B540F6FF3E0568E3
:10309000C4F2000E40F2004C7045C4F2010C0FDC8B
:1030A000B0F1804F19D040F20043C4F200039842BF
:1030B00013D040F60003C4F2000398420DD011E093
:1030C00040F60043C4F20003984206D0604504D0A5
:1030D0000023C4F20103984204D14B6825F070022A
:1030E00043EA020541F6FF73C4F2000398420FDC85
:1030F000704521DCB0F1804F41D040F20043C4F272
:10310000000398423BD040F60003C4F2000334E0D1
:1031100043F6FF73C4F2010398421EDC42F200033F
:10312000C4F2000398422AD00023C4F2010398425B
:1031300025D0604523D027E040F60043C4F20003C9
:1031400098421CD041F60003C4F20003984216D006
:1031500041F60043C4F200030FE044F20003C4F25E
:10316000010398420BD044F60003C4F201039842D5
:1031700005D044F20043C4F20103984204D1CB6865
:1031800025F4407243EA02050A688C684B69C46200
:1031900040F480648262644504BF09690163026887
:1031A00025F0800142F004021943026001224261CD
:1031B0000160B0BD806B0021C185FFF7D9B9000067
:1031C000806B0168496990F84120212A11D111F0E2
:1031D00080010ED00021C184016851E8031F0268FC
:1031E00021F0C00142E80313002BF5D1202180F823
:1031F00041100168496990F84220222A2BD111F030
:10320000400128D00021C185016851E8031F0268F0
:1032100021F4907142E80313002BF5D1016851E8C5
:10322000051F026821F0010142E80513002BF5D1CA
:10323000016B01290AD100BF016851E8031F026830
:1032400021F0100142E80313002BF5D1202180F872
:10325000421000210163416C41F010014164FFF70D
:1032600087B900000168806B0968C90530D4002166
:10327000C18500BF016851E8031F026821F4807115
:1032800042E80313002BF5D1016851E8051F0268DD
:1032900021F0010142E80513002BF5D1016851E846
:1032A000051F026821F0400142E80513002BF5D10B
:1032B000202180F84210016B012909D1016851E8F1
:1032C000031F026821F0100142E80313002BF5D11F
:1032D00000214163016B012918BFFFF7EFBB818D0E
:1032E000FFF744B9806B01214163016B012918BFCD
:1032F000FFF70CBC818D4908FFF738B90168806B76
:103300000968C90548BFFFF7C7BC0021C18400BFD9
:10331000016851E8051F026821F0800142E80513A9
:10332000002BF5D1016851E8031F026841F040010C
:1033300042E80313002BF5D170470000806BFFF7C4
:10334000ADBC000090F84210222918BF7047826877
:10335000B2F5805F02D1016900294AD0816AB2F5D5
:10336000805F07D00AB9026922B10268526802F090
:103370007F0201E0026852680A70816A013181624D
:10338000C18D01390A04C18500D070470168CA683F
:1033900022F02002CA60CA6822F48072CA604A69B8
:1033A00022F001024A61202180F84210002141638D
:1033B000026B012A18BFFFF781BB81B0016300BF18
:1033C000016851E8031F026821F0100142E803136D
:1033D000002BF5D101680A68D20606D500220092BA
:1033E0000A680092496800910099818D01B0FFF749
:1033F000BDB80168826A49686FF35F2122F8021B39
:103400008262BDE7B0B50446006804F108030ECB44
:103410000569194325F440552A4302616269E3694D
:103420001143C268194349F20C639A431143C160C6
:103430004169A26921F4407141F20043114340F413
:103440008062C4F201039A42416102D1FEF7E6F9BB
:1034500001E0FEF7CFF9E1694FF69C756368192228
:10346000C0F6FF75B1F5004FA0FB02011CD15A0058
:10347000DB0FFCF7A5FE48F21F51C5F2EB11A0FBD4
:1034800001235A0905F1805302FB0300322303EBA9
:10349000C000A0FB01014FF4F87000EA111000EB2E
:1034A0000210C1F3421118E09A009B0FFCF788FE4E
:1034B00048F21F51C5F2EB11A0FB01235A0902FB90
:1034C0000500322303EB0010A0FB0101F02000EA0D
:1034D000511000EB0210C1F34311084421688860C9
:1034E000B0BD0000F0B581B01346002704468162EC
:1034F00083854764222084F84200E06B43F265250F
:1035000043F2E5260A462168C0F60005C0F600062B
:10351000C0E90F5643F2C116C0F600060431C0E9F7
:103520001367FDF769FE38B110206064202084F82D
:103530004200012001B0F0BD0097206801680091B1
:10354000406800900098206950B100BF206850E8A2
:10355000030F216840F4807041E80302002AF5D18E
:10356000206850E8050F216840F0010041E805029D
:10357000002AF5D1206850E8050F216840F040008E
:1035800041E80502002AF5D1002001B0F0BD00009D
:1035900040F2D810C2F20000FEF7ECBF40F220204B
:1035A000C2F20000FEF7E6BFFEE7000080B582B081
:1035B000019040F22020C2F2000001A90122322332
:1035C000FFF7A6FA019802B080BD00000F2001218C
:1035D000FDF72EFAFDF796FBFDF756FFFFF7E2FC2D
:1035E000FFF784FBFFF75EFBFFF7B4FBFFF7F6FB8B
:1035F000FFF790FCFFF7ACFC00F002F8FCE70000DE
:1036000010B52DED028B82B040F23074C2F200048E
:103610002068FCF7BFFE9FED1A0B53EC102BFCF754
:1036200012FEFCF7CAFE206040F23474C2F20004BD
:1036300094ED000AB6EE001A30EE010A84ED000A9D
:10364000FCF7A8FE41EC100B00F04EF82068B0EE3D
:10365000408AF0EE608AFCF79DFE41EC100B00F012
:1036600043F853EC182B08A08DED000B00F014F874
:10367000642002B0BDEC028BBDE81040FDF70CBE2B
:103680009A9999999999B93F73696D706C65733A74
:1036900025662C2025660A000FB4054B10B503A93A
:1036A000044A029800F070FD10BC5DF814FB0000A5
:1036B000AD3500080000002003B4019841000098D7
:1036C00050EAC12018BF04204A0D18BF40F0010085
:1036D00040F2FF72B2EB515F08BF40F002000128D8
:1036E00008BF052002B0704710B52F499FED2C1B75
:1036F0002DED020B84B0059820F000408842DCBF1D
:1037000000209DED040B32DD2849884209D1049840
:1037100040B94FF0010000F06FFC00F03DFC06B036
:1037200010BD05DB9DED040B00F02AFC06B010BDBA
:1037300068469DED040B00F03BF810F0030011D03B
:10374000012818D09DED021B9DED000B02281AD018
:1037500000F04AFA51EC100B81F0004106B041EC48
:10376000100B10BD9DED021B9DED000B012000F024
:103770006FFB06B010BD9DED021B9DED000B00F030
:1037800033FA06B010BD012000F062FB51EC100BC3
:1037900081F0004106B041EC100B10BD00000000AC
:1037A0000000000000000000FB21E93F0000F07F66
:1037B0002DE9F14F04462DED020B2DED088B8AB05B
:1037C0009FEDE70B80ED020B139EE74826F00045C6
:1037D00085420ADC9DED120B002084ED000B0AB03F
:1037E000BDEC088B03B0BDE8F08FE0489FEDE0AB87
:1037F0009FEDE1BBA84247DDE14F9FEDE39B9FEDCD
:10380000E48B9DED120B53EC1A2B51EC100B002E98
:103810001CDDFCF7B9FD41EC100BBD4208D053ECA8
:103820001B2B51EC100BFCF7AFFDC4E900010BE0C2
:1038300053EC192B51EC100BFCF7A6FD53EC182B95
:10384000FCF7A2FDC4E900010120C8E7FCF7FBFC7E
:1038500041EC100BBD4208D053EC1B2B51EC100B6C
:10386000FCF7F1FCC4E900010BE053EC192B51EC1F
:10387000100BFCF7E8FC53EC182BFCF7E4FCC4E954
:1038800000014FF0FF30AAE7C348A84279DB9DED65
:10389000120B51EC100B01F00EF841EC180B9FEDE0
:1038A000C00B53EC102BFCF77FFE9FEDBF1B53ECBE
:1038B000112BFCF7C8FCFCF7BFFF0746FCF79EFF87
:1038C00041EC190B53EC1A2BFCF76EFE53EC182B42
:1038D000FCF75DFD41EC180B53EC1B2B51EC190B65
:1038E000FCF762FEDFF8C8A241EC100B4FEA155856
:1038F0000125FA4453EC102B51EC180BFCF744FD56
:10390000032DC4E900013DD0C1F30A5005EB451178
:10391000A8EB00001139814234DA0AEB051BB0EE46
:1039200048AA9BED000BF0EE68AA53EC102B51EC6B
:10393000190BFCF739FE41EC1B0B51EC1A0B53EC45
:103940001B2BFCF721FD41EC180B51EC1A0B53EC2F
:10395000182BFCF719FD53EC1B2BFCF715FD9BED09
:10396000020B41EC1A0B53EC102B51EC190BFCF72A
:103970001BFE53EC1A2BFCF707FD41EC100B6D1CE2
:10398000B8E70EE0002EA8BF3846BFF628AF94ED8A
:10399000000B51EC100B81F00041C4E900017842AA
:1039A0001DE7C6F3130040F4801EC6F30A50A0F2D0
:1039B000F530471100F01F05C5F12000DDF848B0D3
:1039C00008900020069007900520EC467949002DCC
:1039D00007EB0002794408BF51F8221009D051F8D2
:1039E000223001EB8201AB404A68089922FA01F1CA
:1039F0001943A1FB0E26A1FB0B131A449A4234BFB4
:103A00000123002303EB06080CEB8003D3E901A696
:103A10000E448E4234BF0121002192448A4411B1E8
:103A2000924502D903E0924501D2012100E0002134
:103A3000C3E901A641444CF82010011EA0F1010089
:103A4000C4DC029800F10050850F0298DDE903679D
:103A50008000DDF81480FCF7D1FE41EC1A0B3046F3
:103A6000FCF7DDFE9FED541B53EC112BFCF79CFD86
:103A700041EC1B0B3846FCF7D2FE9FED511B53EC7B
:103A8000112BFCF791FD41EC180B4046FCF7C7FEEB
:103A90009FED4D1B53EC112BFCF786FD41EC190BF0
:103AA00051EC180B53EC192BFCF7CDFB53EC1B2BF3
:103AB000FCF7C9FB53EC1A2BFCF7C5FBCDE9080159
:103AC000002008909DED080B53EC1A2B51EC100BC5
:103AD000FCF75AFC53EC1B2BFCF756FC53EC182B51
:103AE000FCF752FC53EC192BFCF751FC9FED381BF3
:103AF00053EC112BFCF758FD9FED370B41EC180BE5
:103B000053EC102B9DED080B51EC100BFCF74CFD0A
:103B100053EC182BFCF797FB9FED310B41EC180B86
:103B200053EC102B9DED080B51EC100BFCF73CFDFA
:103B300053EC182BFCF787FB41EC100B139810F09B
:103B4000004F06D06D4251EC100B81F0004141EC6A
:103B5000100B284684ED000B41E600000000000039
:103B60000000000000000000FB21E93F7CD902407A
:103B700000004054FB21F93F3163621A61B4D03D2B
:103B8000FB21F93F000000000000601A61B4D03D45
:103B90007370032E8A19A33BFB21394100000000FA
:103BA00083C8C96D305FE43F000000000000E03FC3
:103BB0000A100000580F0000000000000000103E36
:103BC000000000000000103C000000000000103A5F
:103BD000182D4454FB21F93D3326A611460B113C08
:103BE00000000054FB21F93D10B52DED040B2DED27
:103BF000088B82B0B0EE419AF0EE619A0B9820F0FB
:103C000000449FED4BABB4F1795F11DA9DED0A0BE7
:103C100051EC100BFCF710FE002801BFB0EE4A0A71
:103C2000F0EE6A0A02B0BDEC088B04BF04B010BD10
:103C30009DED0A0B53EC102B51EC100BFCF7B4FC70
:103C400041EC180B3C480621B0EE480AF0EE680A39
:103C5000784400F081F853EC182B51EC100BFCF772
:103C6000A3FC9DED0A0B41EC1B0B53EC192B51EC03
:103C7000100BFCF799FC41EC190B53EC1B2B51EC8E
:103C8000180BFCF791FC53EC192BFCF77DFB9FED17
:103C90002C0B41EC190B53EC102B51EC180BFCF7CF
:103CA00083FC41EC100B2848844210DA53EC192BAA
:103CB00051EC100BFCF768FB53EC1A2BFCF767FB7D
:103CC00041EC100B02B0BDEC088B04B010BD1F48D6
:103CD000A042BCBF9FED1E1B8DED001B06DBA4F5B3
:103CE00000100190002000909DED001B51EC100B86
:103CF00053EC112BFCF748FB9DED000B41EC180B2E
:103D000053EC102B51EC1A0BFCF73EFB41EC1A0B59
:103D100053EC192B51EC180BFCF736FB53EC1A2B18
:103D2000FCF735FB41EC100BCCE700000000000075
:103D3000000000000000F03F7C0C000000000000CC
:103D4000000000000000E03F3333D33F0000E93FB4
:103D5000000000000000D23F70B504462DED028B3C
:103D60004D1E00EBC500B0EE408AF0EE608A90ED8B
:103D7000000B35F0060017D053EC182B51EC100B4C
:103D8000FCF712FC41EC100B6D1E04EBC50090ED2E
:103D9000001B51EC100B53EC112BFCF754FA41ECC7
:103DA000100B35F00600E7D1022D36D0042D1CD0C3
:103DB000062D1CBFBDEC028B70BD53EC182B51ECD3
:103DC000100BFCF7F1FB94ED0A1B53EC112BFCF7E5
:103DD0003AFA53EC182BFCF7E7FB94ED081B53EC75
:103DE000112BFCF730FA41EC100B53EC182B51EC73
:103DF000100BFCF7D9FB94ED061B53EC112BFCF7D1
:103E000022FA53EC182BFCF7CFFB94ED040B53EC88
:103E1000102BFCF718FA41EC100B53EC182B51EC5B
:103E2000100BFCF7C1FB94ED021B53EC112BFCF7BC
:103E30000AFA53EC182BFCF7B7FB94ED001B53EC7C
:103E4000112BFCF700FABDEC028B41EC100B70BD9E
:103E500031B504462DED040B2DED0A8BB0EE41BAC1
:103E6000F0EE61BA0B989DED0A0B20F00040B0F126
:103E7000795F0DDA51EC100BFFF71EFC042808BF28
:103E800000F09AF89DED0A0BBDEC0A8B05B030BD31
:103E900053EC102B51EC100BFCF786FB41EC180B8C
:103EA0009DED0A0B53EC182B51EC100BFCF77CFB2F
:103EB00041EC190B2C48B0EE480AF0EE680A0521D7
:103EC0007844FFF749FF9FED2ACBB0EE40AAF0EE11
:103ED00060AA9CB353EC1C2B51EC190BFCF764FB50
:103EE00041EC1C0B53EC1A2B51EC190BFCF75CFB4F
:103EF0009FED210B41EC190B53EC102B51EC1B0BDC
:103F0000FCF752FB53EC192BFCF73EFA53EC182B41
:103F1000FCF74AFB53EC1B2BFCF736FA53EC1C2B3B
:103F2000FCF732FA9DED0A1B53EC112BFCF72FFA2C
:103F3000BDEC0A8B05B041EC100B30BDFFE753EC34
:103F40001A2B51EC180BFCF72FFB53EC1C2BFCF736
:103F50007AF953EC192BFCF727FB9DED0A1B53EC68
:103F6000112BFCF770F9E3E70C0B000000000000D8
:103F7000495555555555C5BF000000000000E03FAC
:103F800010B553EC102B51EC100BFCF75CF941EC25
:103F9000100B10BD000000009FED050B10B553EC99
:103FA000102B51EC100BFCF771FB41EC100B10BD0A
:103FB00000000000000000009FED050B10B553EC61
:103FC000102B51EC100BFCF7EFFA41EC100B10BD6D
:103FD000000000000000001002E008C8121F08C125
:103FE000002AFAD170477047002001E001C1121F7A
:103FF000002AFBD1704700000149086070470000AB
:10400000040000202DE9FF5F82B00021DDE90430CB
:10401000020DDDF840B0034318D044F61050A2F270
:10402000FF3242431514119801281FD0A5EB0B0055
:10403000401C5FEA000A4FF000064E4FDFF838914F
:10404000B046504615D5CAF1000413E0119801247A
:104050004AA3012801D16FEA0B010298119AC0E925
:104060000031C0E9024206B0BDE8F09FCBF100008C
:10407000DFE704460021404A491842EB0450CDE9ED
:10408000001012E0E00707D032463B464046494662
:10409000FCF78AFA8046894632463B461046194666
:1040A000FCF782FA06460F466410002CEAD1DDE9DF
:1040B0000401DDE90023BAF1000F06DAFCF774FA17
:1040C00042464B46FCF770FA05E0FCF7DFFA424641
:1040D0004B46FCF7DBFA04460E460022284BFCF761
:1040E0005DFB03D84FF0FF30014607E00022254B6F
:1040F00020463146FCF7A7F8FCF737FB102409E00F
:10410000002C0ADB0A220023FCF75AF8039B30320A
:104110001A55641E50EA0102F2D1641C039AC4F1DC
:1041200011031444119A012A03D0012208430DD12E
:104130000AE0084304D000204FF0110B119072E701
:10414000A3EB0B056D1E0DE05B4504DD4FF0000297
:1041500005F1010504E003DA4FF00002A5F10105C5
:10416000002AECD002981199C0E90231C0E900455B
:1041700079E70000000014400000F03F300000002C
:104180000000F0430000E03F2DE9FF4F95B09B4653
:104190008946064600250FE2252877D100242746C8
:1041A000F84A0121059400E0044316F8013F203B42
:1041B00001FA03F01042F7D130782A2811D06FF0BD
:1041C0002F033078A0F13002092A16D8059A44F05E
:1041D000020402EB820203EB42021044761C0590BB
:1041E000EFE759F8042B0592002A03DA504244F411
:1041F0000054059044F00204761C30782E2816D125
:1042000016F8010F44F004042A280DD06FF02F0295
:104210003078A0F13003092B09D807EB870302EBB4
:104220004303C718761CF3E759F8047B761C3078F3
:104230006C280FD006DC4C2817D068280DD06A28CF
:1042400014D104E0742810D07A280FD10DE044F482
:1042500000140AE044F4801401E044F4401472783D
:10426000824202D104F58014761C761C30786628D0
:104270000BD013DC582877D009DC002875D04528EE
:10428000F6D04628F4D047281AD19DE118E06328DB
:1042900035D0642879D0652812D195E1702873D083
:1042A00008DC6728F1D069286FD06E280DD06F2800
:1042B00006D1B5E073282CD0752875D0782874D035
:1042C0005A46179990476D1C75E1C4F302500228B5
:1042D00009D003280DD0D9F8001004280DD00D60A6
:1042E00009F1040967E1D9F80010EA17C1E90052A1
:1042F000F6E7D9F800100D80F2E70D70F0E719F835
:10430000041B8DF8001000208DF80100EA46012002
:1043100003E059F804AB4FF0FF3061074FF00001A4
:1043200002D40DE008F101018846B9420FDA804558
:10433000F8DB1AF808100029F4D108E008F10101AF
:1043400088468142FADB1AF808100029F6D1059850
:104350005B46A0EB080721463846179A00F094FA0E
:10436000284400EB080507E04DE029E10DE01AF8CC
:10437000010B5A4617999047B8F10108F7D25B46EE
:1043800021463846179A13E142E00A220092C4F30C
:1043900002524FF0000A022A08D059F804CB032A2F
:1043A0004FEAEC710AD00DE029E02AE009F107019B
:1043B00021F00702F2E802C1914609E00FFA8CFCF5
:1043C0004FEAEC71042A03D14FFA8CFC4FEAEC71EE
:1043D000002907DA0A460021DCF1000C61EB02013A
:1043E0002D2202E0220504D52B228DF80420012283
:1043F00003E0E20701D02022F7E7904659E00A21C6
:1044000002E010220DE010214FF0000A00910BE0B5
:1044100010224FF0000A44F004040827009203E041
:1044200008224FF0000A0092C4F30252022A05D07B
:1044300059F804CB0021032A08D009E009F107014B
:1044400021F00702F2E802C1914605E01FFA8CFC58
:10445000042A01D10CF0FF0C4FF00008220728D5E8
:10446000702806D0009B83F0100353EA0A0305D09E
:104470000EE040228DF80420012208E05CEA0102EF
:1044800006D030228DF804208DF8050002229046D7
:10449000009B83F0080353EA0A030AD15CEA010295
:1044A00001D1620705D530228DF804204FF00108B4
:1044B0007F1E582804D034A003900EA802900DE06F
:1044C00036A0F9E753466046009AFBF779FE84462A
:1044D0000398825C0298401E029002705CEA010020
:1044E000F0D1029806A9081A00F1200A600702D547
:1044F00024F4803400E00127574502DDA7EB0A00D1
:1045000000E0002000EB0A01009005984144401AA9
:104510000590E00306D45B462146179A059800F003
:10452000B3F90544002706E001A85A46C05D179973
:1045300090476D1C7F1C4745F6DBE0030CD55B46BE
:104540002146179A059800F09FF9054404E03020B1
:104550005A46179990476D1C0099481E00900029F3
:10456000F5DC08E0029802995A460078491C02914D
:10457000179990476D1CBAF10001AAF1010AF1DC0C
:1045800065E1000009280100303132333435363717
:10459000383961626364656600000000303132338F
:1045A000343536373839414243444546000000002F
:1045B00000F058F90544761C307800287FF4ECAD03
:1045C00019B02846BDE8F08F620700D4062709F12C
:1045D000070222F0070CFCE80223E14603F0004842
:1045E0005FEA080C02D00FF2702C0DE05FEA045C69
:1045F00002D50FF2682C07E05FEAC47C02D00FF20C
:10460000602C01E0AFF2700C4FF0FF3823F0004354
:10461000CDF850C065280CD006DC452809D04628C6
:104620001DD047283DD13DE0662818D067287ED1AF
:1046300038E00021112F01DB112000E0781CCDE9CA
:10464000000106A90EA8FFF7DDFCDDE90F010E9AB7
:1046500003910021009207F1010A04914DE04FF00F
:1046600000400097CDE9011006A90EA8FFF7CAFC8B
:10467000DDE90F0203920E9B11990022DDF80CA0D8
:104680000093049211B9791C00EB010AB7EB0A0000
:1046900004D4C0F1FF3007F1010A0490AAEB07002F
:1046A000019044E0012F00DA01270021112F01DDE4
:1046B000112000E03846CDE9000106A90EA8FFF759
:1046C000A1FCDDE90F010E9A0391002104910092F3
:1046D000BA4621070CD40399514500DA8A46BAF14B
:1046E000010F05DD009AAAF10101515C302908D0C3
:1046F000B84202DA10F1040F06DA0121CDE9011007
:1047000015E0AAF10101E9E7002805DC049901445C
:104710000491AAEB000102E0411C514500DD8A46EC
:104720000499401A401C01904FF00040029020076D
:1047300004D40198504501DBCDF8048000208DF8A9
:104740004F0002980DF14F07B0F1004F25D02B20FC
:104750000E9002984FF0020800280CDA40420290B6
:104760002D200E9007E00A210298FBF742FE30311F
:10477000029007F8011DB8F10001A8F10108F2DC70
:1047800002980028EFD1791E0E980870307800F05A
:10479000200040F0450007F8020D12A8C01B00F1F0
:1047A00007081498007800B1012000EB0A01019875
:1047B00001EBE07105984144401A401E0590E0036A
:1047C00006D45B462146179A059800F05DF805442B
:1047D0001498007818B15A46179990476D1CE00359
:1047E00024D55B462146179A059800F04DF80544FC
:1047F0001CE00498002807DBDDE90301884203DDA3
:104800000098405C179901E0179930205A4690476C
:10481000049805F10105401C04900198401E019088
:1048200004D12E205A46179990476D1CBAF1000109
:10483000AAF1010ADDDC05E017F8010B5A461799C9
:1048400090476D1CB8F10001A8F10108F4DC5B464B
:104850002146179A0598ABE62D0000002B000000BA
:10486000200000002DE9F041044600251E461746B1
:10487000880404D405E039462020B0476D1C641E2E
:10488000F9D52846BDE8F0812DE9F0410446002520
:104890001E469046C80301D5302700E02027880433
:1048A00004D505E041463846B0476D1C641EF9D575
:1048B0002846BDE8F08182B0CDE9000121F000403A
:1048C00001909DED000B02B051EC100B7047000001
:1048D0004C5555555555A53F7751C1166CC156BF1E
:1048E0009015CB19A001FA3EAD529C804F7E92BE2E
:1048F000C4B1B4BD9EEE213ED43888BEE9FAA8BD4D
:1049000000004054FB21F93F3163621A61B4D03D8D
:104910000000601A61B4D03D7370032E8A19A33B66
:104920000000002E8A19A33BC14920259A837B39B8
:1049300000000000000000006E83F9A22915444E1B
:10494000D15727FCC0DD34F5999562DB4190433C9B
:10495000AB6351FE61C5BBDE3A6E24B7E0D24D4277
:10496000EA2E49061C92D1091CEB1DFE3EA729B177
:10497000F53582E88444BB2E26709CE9417E5FB405
:1049800039D69139F43953838B5F849C3B28F9BD28
:10499000FF97F81F0F9805DE8B112FEF1F6D0A5A36
:1049A000CF7E366DB709CB27663F464F2DEA5F9E17
:1049B000C7BA27757BF1E5EBF739073DEA92528AD2
:1049C000B15FFB6B085D8D1F463003560000000091
:1049D000A6F810111111813FD561C119A0012ABF9C
:1049E0007DFEB157E31DC73EEB9C2B8AE6E55ABE20
:1049F0007CD5CF5A3AD9E53D000000000000000008
:104A00000102030406070809000000000102030474
:104A1000010001014000000080020020800600200B
:104A20000007002000000000000610160006101607
:104A30002E2E2F436F72652F5372632F6D61696E37
:104A40002E630000804A00080000002040000000A3
:104A5000D83F0008C04A000840000020000B0000BA
:104A6000E83F000800000000000000000000000017
:104A70000000000000000000000000000000000036
:104A800000000000000000000024F400010000000D
:104A90001000000000000000000000000000000006
:104AA0000000000000000000000000000000000006
:104AB00000000000000000000000000000000000F6
:040000050800018965
:00000001FF
