:020000040800F2
:10000000F80900209D0100082D230008FD200008AC
:1000100029230008D902000851250008000000002B
:10002000000000000000000000000000392300086C
:10003000DD02000800000000312300083D23000815
:10004000B7010008B7010008B7010008B7010008B0
:10005000B701000835230008B7010008B701000800
:10006000B7010008B7010008B7010008B701000890
:10007000B7010008B7010008B7010008B701000880
:10008000B7010008B7010008B7010008B701000870
:10009000B7010008B7010008B7010008B701000860
:1000A000B7010008B7010008B7010008B701000850
:1000B000012400080D240008B7010008B70100085A
:1000C000B7010008B7010008B7010008B701000830
:1000D000B7010008B7010008B7010008B701000820
:1000E000B7010008B7010008B7010008B701000810
:1000F00019240008B7010008B7010008B70100087B
:10010000B7010008B7010008B7010008B7010008EF
:10011000B7010008B7010008B7010008B7010008DF
:10012000B7010008B7010008B7010008B7010008CF
:10013000B70100080000000000000000B70100083F
:10014000B7010008B7010008B7010008B7010008AF
:10015000B7010008B7010008B7010008B70100089F
:10016000B7010008B7010008B7010008B70100088F
:10017000B7010008B70100080000000000000000FF
:10018000B7010008B7010008DFF80CD000F08CF8C8
:10019000004800476D250008F80900200648804700
:1001A00006480047FEE7FEE7FEE7FEE7FEE7FEE75C
:1001B000FEE7FEE7FEE7FEE7ED2300088901000801
:1001C0002DE9F05F0546002092469B46884606468C
:1001D000814640241BE0284641464746224600F01F
:1001E00053F853465A46C01A914110D31146184647
:1001F000224600F03AF82D1A67EB01084F462246D6
:100200000120002100F031F817EB00094E41201EBB
:10021000A4F10104DFDC484631462A464346BDE8E6
:10022000F09F40EA01039B0703D009E008C9121FB1
:1002300008C0042AFAD203E011F8013B00F8013BA0
:10024000521EF9D27047D2B201E000F8012B491ECC
:10025000FBD270470022F6E710B513460A46044663
:100260001946FFF7F0FF204610BD202A04DB203A94
:1002700000FA02F1002070479140C2F1200320FAF9
:1002800003F3194390407047202A04DB203A21FAF7
:1002900002F00021704721FA02F3D040C2F120029F
:1002A00091400843194670471CB509480090094819
:1002B00001900546009C06E0E06840F0010394E8E8
:1002C000070098471034AC42F6D3FFF761FF0000F7
:1002D000C0260008E0260008FEE700007047000086
:1002E00072B600BFFEE700002DE9F04740F2C057AC
:1002F000C2F2000790463A78002A3DD0894640F283
:1003000040510646C0F3C620C2F20001085CC6F3A5
:100310000221C840C0072FD0BC6904E0BFF32F8F73
:1003200000220C465ABB00F06FFDA04216D2EFF33C
:10033000108272B6B969A14204D05AB1A1420DD15E
:100340001DE000BF3B69B86101333B61BFF35F8FC4
:10035000002AF3D162B6A14211D000BF57E8061FB0
:10036000A142DBD1BFF35F8F47E80602002AD7D155
:10037000BFF35F8F0122D4E70120BDE8F087B1B25F
:100380004FF0005606EA99064FF080454FF0805333
:1003900005EA58053144EFF3058203EAD003294406
:1003A00040F2401C01EB030E002A4FF00702C2F29C
:1003B000000C18BF0EF5002E57E8011F4B1C47E834
:1003C0000134002CF8D101F03F030CEB031A564620
:1003D00001F4707356F80C1F4EEA833506E000BF37
:1003E000BFF32F8F00210029214613D14B0110D4D8
:1003F00001F0004356E8004F2B448C4243F07063F9
:10040000EED146E800310029ECD1BFF35F8F012126
:10041000E9E70023590105D4013ACDD107F10C01D8
:1004200000201FE083F0004101F0004220F0004076
:1004300029F0004328F00045104413442A44CAE937
:100440000003CAF8082021F0806007F10801BFF31B
:100450005F8F00BF56E8002F46E80002002AF9D15E
:10046000012000BF51E8002F013241E80023002B9A
:10047000F8D1BDE8F08700002DE9F04F89B088463B
:100480000146B8F1000F4FF0000000F0AA82802A68
:1004900000F2A78240F2C056C2F20006307800286F
:1004A0003ED0174640F24052C1F3C620C2F20002CD
:1004B000105CC1F30222D040C00731D0B5690C46B0
:1004C00005E000BFBFF32F8F00220D4662BB00F096
:1004D0009BFCA84216D2EFF3108272B6B169A94212
:1004E00004D05AB1A9420DD11EE000BF3369B061FA
:1004F00001333361BFF35F8F002AF3D162B6A942A3
:1005000012D000BF56E8061FA942DBD1BFF35F8FB0
:1005100046E80602002AD7D1BFF35F8F0122D4E755
:10052000012009B0BDE8F08FEFF305812246C0F24B
:100530000804002908BF94B24FF08051002F5AD010
:10054000092F01EAD00B80F097800021CDE9061138
:1005500006A90546084641463A46FFF762FEDDE930
:1005600006AE4FF0005000EA9A004FF0804101EAD9
:100570005E0167F31240AC4600EB0109072700BF9C
:1005800056E8010F411C46E80112002AF8D140F25A
:10059000401200F03F01C2F2000202EB0118414696
:1005A00000F4707051F80C2F49EA803306E000BF68
:1005B000BFF32F8F0022002A024616D1500113D418
:1005C00002F00040184440EA0B0551E8000F2543B3
:1005D000904245F07065EBD141E80052002AE9D124
:1005E000BFF35F8F0122E6E70025680100F1B380C9
:1005F000013FC5D13CE001EAD00C4FF0070E00BF2F
:1006000056E8011F4A1C46E80123002BF8D140F2AE
:10061000401301F03F02C2F2000303EB021801F4A1
:100620007073414651F80C2F4CEA833506E000BF49
:10063000BFF32F8F0022002A3A4614D1530111D460
:1006400002F000432B4451E8007F2343974243F0DC
:100650004063EDD141E80032002AEBD1BFF35F8F58
:100660000122E8E700235A016BD4BEF1010EC7D185
:1006700006F10C020020ADE1711C0397D1E84F2F69
:10068000531CC1E8473F002FF8D14FF4E02101EAA5
:100690000249D8F80430D8F800204FF00051CDE9D5
:1006A0000623019201EA92014FF0804202EA5302CE
:1006B00011444FF0070ACDF814800293049100BF53
:1006C00056E8011F4A1C46E80123002BF8D140F2EE
:1006D000401301F03F02C2F2000303EB021E724618
:1006E000049F01F4707152F80C3F47EA813505E030
:1006F000BFF32F8F0023002B0B4619D1590115D4BE
:1007000003F000412944214341EA0B0752E8001F4E
:1007100047EA0907994247F05068E9D142E8008367
:10072000002BE7D1BFF35F8F0123E4E74FF0000810
:100730005FEA481C1ED4BAF1010AC1D106F10C03CC
:1007400038E083F0004404F0004220F00040104400
:10075000C8E900022EE185F0004404F000402CF0CE
:1007600000422AF0004302440344C8E900232EF06B
:1007700000421EE1019D029F88F0004101F000430C
:1007800020F0004425F0004527F000471C441D449C
:100790003B44CEE90045CEF8083021F0806106F1F7
:1007A0000803BFF35F8F00BF52E8007F42E80017E5
:1007B000002FF9D1059900BF53E8002F571C43E8DB
:1007C0000072002AF8D1BCF1000F03D4002009B058
:1007D000BDE8F08F4FF60172039D49EA020420F054
:1007E00000400490083D092D01F10801C0F07F8010
:1007F000D1F804E0D1F8008005914FF000504FF09F
:10080000804100EA980001EA5E0100EB010907223D
:100810000395CDE9068E00BF56E8010F411C46E85E
:100820000113002BF8D140F2401300F03F01C2F257
:10083000000303EB011A554600F4707055F80C1FC5
:1008400049EA803006E000BFBFF32F8F0021002966
:10085000394616D14B0113D401F00043034423431E
:1008600055E8007F43EA0B038F4243F04063EBD12E
:1008700045E800310029E9D1BFF35F8F0121E6E7A8
:1008800000235FEA431C05D4013AC5D106F10C00F0
:100890001CE000BF83F00040049A00F0004128F003
:1008A00000432EF000470A440B443944CAE90023B0
:1008B000CAF8081020F08060BFF35F8F55E8001F72
:1008C00045E800010029F9D106F10800039D0599CA
:1008D00050E8002F531C40E80032002AF8D10134C0
:1008E000BCF1000F4FF000003FF57CAF79E0002035
:1008F000CDE9060006A82A46FFF793FCFF20C7F2C1
:10090000FF10DDE906EC20404FF0005140EA0520E1
:1009100001EA9E014FF0804202EA5C02084340EA8D
:100920000205072456E8010F411C46E80112002A7F
:10093000F8D140F2401200F03F01C2F2000202EB97
:100940000118414600F4707051F80C7F45EA803080
:1009500006E000BFBFF32F8F0027002F174616D1E8
:100960007A0113D407F0004240EA020351E8002F55
:1009700043EA0B03BA4243F06063EBD141E800372E
:10098000002FE9D1BFF35F8F0127E6E7002358016D
:1009900002D4013CC6D16BE683F00044049A04F013
:1009A00000402EF0004302440344C8E900232CF029
:1009B00000420244C8F8082024F0806006F10802D2
:1009C000BFF35F8F51E8003F41E80003002BF9D1EE
:1009D000012000BF52E8001F013142E80013002B44
:1009E000F8D109B0BDE8F08F2DE9F04F83B040F2A7
:1009F000C05A40F240568046C2F2000A0020C2F2BD
:100A0000000689468AF8000030468021FFF722FC64
:100A100042F29461C0F6000118224FF6FF7741F2CE
:100A2000210300BF0D7887EA05276FF0070500BF97
:100A30003CB238467F00002C48BF83EA40070135AE
:100A4000F6D3013A01F10101ECD1DAF8200042F2CB
:100A50006B71CEF2A511884208D1BAF80200B9B282
:100A6000884205D1DAF81C00451C04E0CAF82010C1
:100A7000AAF80270012540F24017012DC2F20007CA
:100A80004FF00000CAF81C500ED18AF80100CAE9E4
:100A90000100CAF80C0040F24010C2F200004FF40E
:100AA0008061FFF7D7FB0AE03918CA68103053019C
:100AB00044BF22F04062CA60B0F5806FF4D100F00C
:100AC000AFF9012D04460AD1002C4FF000050CBFF0
:100AD000002000F09FF9CAE90450CAF81850002C11
:100AE00000F0E880002001210022029405E000BF10
:100AF0000130042802F1200211D028FA00F3DB07AC
:100B0000F6D0002302EBD30503F00707745D01FA6A
:100B100007F701332743FF2B7755F3D1E8E7002090
:100B200031184A7F203042F0800280284A77F7D17E
:100B3000002002E02030802807D04028FAD1311868
:100B4000CA7F42F04002CA77F4E7CDF80490DAF8A1
:100B5000185004E0BFF32F8F00220D4652BB00F067
:100B600053F9A84218D2EFF3108272B6DAF81810CF
:100B7000A94203D06AB1A9420ED11BE0DAF81030C5
:100B8000CAF818000133CAF81030BFF35F8F002A8B
:100B9000F1D162B6A9420DD05AE8061FA942D9D1B7
:100BA000BFF35F8F4AE80602002AD5D1BFF35F8FFB
:100BB0000122D2E7DAF81CE0DAF814404FF0805155
:100BC0004FF0005201EAD00102EA9E024FF080434A
:100BD00003EA540311444FF6007601EB030B072799
:100BE000C0F60076009400BF5AE8011F4A1C4AE88C
:100BF0000123002BF8D140F2401301F03F02C2F272
:100C0000000303EB021C01F47072614651F80C8F73
:100C10004BEA823505E000BFBFF32F8F0022C846A4
:100C2000A2B95FEA481210D408F0004251E8009FD0
:100C30002A44C14542EA0603EED141E80032002AC7
:100C4000ECD1BFF35F8F0122E9E700235A0105D4FD
:100C5000013FC9D1019C0AF10C001FE0009E83F006
:100C6000004202F0004320F000402EF0004726F042
:100C7000004618441F443344CCE90007CCF8083040
:100C8000BFF35F8F019C22F080620AF1080000BF71
:100C900051E8003F41E80023002BF9D150E8001F44
:100CA000013140E80012002AF8D1002C029C18BF44
:100CB00000F004F8204603B0BDE8F08F2DE9F043C2
:100CC00081B040F2C054C2F200042078002840F005
:100CD000968001202070A56905E000BFBFF32F8F2B
:100CE00000220D4642BB00F08FF8A84216D2EFF367
:100CF000108272B6A169A94204D05AB1A9420DD19D
:100D00001AE000BF2369A06101332361BFF35F8F45
:100D1000002AF3D162B6A9420ED000BF54E8061FE4
:100D2000A942DBD1BFF35F8F44E80602002AD7D186
:100D3000BFF35F8F0122D4E74FF0805140F2401C97
:100D40004FF6017301EAD00E4FF00709C2F2000C12
:100D5000C0F6007354E8011F4A1C44E80125002D29
:100D6000F8D101F03F020CEB021801F47072414619
:100D700051F80C5F4EEA823606E000BFBFF32F8FBA
:100D80000025002D154613D16A0110D405F0004747
:100D900051E8002F3744AA4247EA0307EED141E861
:100DA0000075002DECD1BFF35F8F0125E9E7002727
:100DB0007A0105D4B9F10109CCD104F10C0017E096
:100DC00087F0004202F0004320F000401844C8E9D8
:100DD0000003C8F8083022F0806204F10800BFF375
:100DE0005F8F00BF51E8003F41E80023002BF9D19D
:100DF00050E8001F013140E80012002AF8D101201C
:100E000001B0BDE8F083000041F20400CEF2000022
:100E10000068704740F20400C2F2000000687047AA
:100E20004EF6FC50CEF20000016841F08071016086
:100E300041F20001CEF20001086840F001020120F9
:100E40000A607047B0B5044600F0E0F8054640F28D
:100E50000800C2F200000078611C18BF044400BF03
:100E600000F0D4F8401BA042FAD3B0BD2DE9F04FFA
:100E700083B000F1200200F13E4741F600450092A8
:100E800007F1FF77C4F2020508224FEAB726A8420D
:100E900008BF0722072E38BF4FEAB72200274FF0BE
:100EA000000A4FF0000801920AE000BF08F10108B3
:100EB0000AF1020AB8F1100F07F1040700F09D8053
:100EC0000D68012202FA08FC15EA0C09EED04D6803
:100ED000032205F0030BABF10106012E02FA0AFE14
:100EE00010D88668CC6826EA0E0604FA0AF4344361
:100EF00084604468C5F3001524EA0C0605FA08F579
:100F00002E434660BBF1030F1BD0C6688D6826EAEE
:100F10000E0605FA0AF52E43BBF1020FC66010D18A
:100F20006FF00302009D02EA580655F806C007F06C
:100F30001C040F220B69A2402CEA0202A3401A43B0
:100F4000AA5102684B6822EA0E0203F0030606FA71
:100F50000AF6324313F4403F0260A7D0002243F662
:100F600044030292C4F202031A6843F6004442F4B6
:100F700080421A601A68C4F2010402F480420292AC
:100F8000029A28F003024FF6084C2244CFF6FF7C69
:100F900052F80C3007F00C060F25B540AB43019D0D
:100FA00005FA06F6334342F80C30A2684B6842EA71
:100FB000090643F60C4CDD0258BF22EA0906A6607A
:100FC000C4F2010CDCF800209D0242EA090658BF79
:100FD00022EA0906CCF8006062689D0342EA09062D
:100FE00058BF22EA090666602268DB0342EA090666
:100FF00058BF22EA0906266058E703B0BDE8F08F23
:10100000002A08BF090481617047000040F2F450D3
:10101000C2F200000068704740F2080040F2F4514C
:10102000C2F20000C2F2000100780A6810440860B1
:101030007047000080B543F60040C4F2020001682A
:1010400041F400710160016841F480610160016850
:1010500041F480710160032000F0C2F80F2000F01D
:1010600005F800F059F8002080BD0000B0B586B04A
:10107000002543F644010195C4F202010A680446C2
:1010800042F002020A60096801A801F00201019120
:101090000199694600F064F900F082F94DF6836128
:1010A0004000C4F21B31A0FB01014FF0FF3000EB08
:1010B000914140F2D00040F20042C2F20000C4F27E
:1010C000010240F2E733C0E90021C0E902530561A3
:1010D000856100F0BDFB08B106B0B0BD40F2D000A4
:1010E000C2F2000000F01CFC0028F5D105462C20BF
:1010F00000F038F80F2C0CD82C202146002200F0EC
:1011000043F840F20C00C2F200000460284606B02A
:10111000B0BD012006B0B0BD80B582B0002043F65E
:1011200040010190C4F202014A6842F480424A60E0
:101130004A6802F480420192019A009008680022F5
:1011400040F0805008600868002100F08050009056
:101150000098052000F018F8052002B0BDE8804096
:10116000AFF30080002848BF704700F01F01012244
:1011700002FA01F11C2202EAD0004EF20012CEF275
:10118000000281507047000010B54EF60C5CCEF2A4
:10119000000CDCF80030C3F3022E8EF00704042CA0
:1011A00028BF0424BEF103034FF0FF3E0EFA04F4FF
:1011B00038BF0023A14399400EFA03F39A43114329
:1011C00000F1604200F00F03090102F56442043BA4
:1011D0006344002848BF03F10C02117010BD0000E9
:1011E0004EF60C51CEF200010A684FF6FF031A408A
:1011F00060F30A2242F0806040F0FD7008607047A2
:10120000002804BF012070472DE9F04143F608088B
:10121000C4F202080446D8F8F8030D4600F00700AF
:10122000884207D288F8F853D8F8F80300F007008E
:10123000A84276D12068810717D5410705D5D8F88F
:10124000001041F4E051C8F80010010705D5D8F8A6
:10125000001041F46041C8F80010D8F80010A268EE
:1012600021F0F0011143C8F80010C0073FD1D8F8B1
:10127000F80300F00700A84207D988F8F853D8F817
:10128000F80300F00700A8424BD12068410707D5BA
:10129000D8F80010E26821F4E0511143C8F80010BA
:1012A000000708D5D8F80000216920F4604040EA22
:1012B000C100C8F8000000F087F8D8F8001042F22A
:1012C0007C62C1F30311C0F60002515C40F20402DB
:1012D00020FA01F140F20C00C2F200000068C2F2F4
:1012E00000021160FFF7C2FE0020BDE8F0816068D7
:1012F000811E022907D258F8081C89015CBF012011
:10130000BDE8F08110E0012807D158F8081C8903D6
:101310005CBF0120BDE8F08106E058F8081C890791
:1013200002D40120BDE8F081D8F8001021F00301BB
:101330000843C8F80000FFF769FE064641F2883707
:10134000D8F80000616800F00C00B0EB810F8ED07F
:10135000FFF75CFE801BB842F2D90320BDE8F081A4
:101360000F22026043F60802C4F20202136803F07F
:1013700003034360136803F0F0038360136803F40E
:10138000E053C360D2F800C04FF4E05303EADC033B
:101390000361D2F8F80300F007000860704700000E
:1013A00040F2040043F60801C2F20000C4F2020158
:1013B0000068096842F28C62C1F34231C0F6000253
:1013C000515CC8407047000010B543F60404C4F2F5
:1013D0000204606800F00C0008280AD0042819BF35
:1013E00042F20040C0F2F40047F64000C0F27D1027
:1013F00010BD206821682368490247F64001C0F209
:101400007D1100F03F02C3F388105CBF42F200413F
:10141000C0F2F401A1FB00010023FEF7D1FE216818
:101420000222C1F3014102EB4101B0FBF1F010BD1A
:10143000002804BF012070472DE9F04182B0044626
:10144000007843F60006C007C4F2020649D0B0682F
:1014500000F00C00042809D13068800341D5606891
:1014600000283ED1012002B0BDE8F081B06800F054
:101470000C00082802D170684002EDD4656830681D
:10148000B5F5A02F05D0B5F5803F09D140F48030E7
:101490000CE040F480203060306840F4803005E09B
:1014A00020F480303060306820F480203060FFF716
:1014B000ADFD002D054611D03068800311D4FFF733
:1014C000A5FD401B6428F7D928E100BFFFF79EFD6A
:1014D000401B64284FF0030000F2E0803068800376
:1014E000F4D4207880071BD5B06810F00C0F09D019
:1014F000B06800F00C00082840F085807068400259
:1015000000F181803068800703D5E068012840F051
:101510009A803068216920F0F80040EAC10030600C
:101520002078000734D42078400746D4A5695DB3FD
:10153000B06800F00C00082840F09C80012D00F0FD
:1015400082807068E16900F480028A427BD1216A5E
:1015500000F03F028A4276D147F6C071626A0140CC
:10156000B1EB821F6FD1A16A4FF6FF73C903994394
:1015700000F44032A1F580318A4264D1E16A00F082
:101580007060B0EB016F5ED1002002B0BDE8F08169
:10159000606900285BD00020C4F247200121C0F818
:1015A000801EFFF733FD0546706F8007BBD4FFF741
:1015B0002DFD401B0228F7D9B0E0306C5FEAC0086F
:1015C0000AD400200190306C40F080503064306CC0
:1015D00000F080500190019847F20007C4F2000724
:1015E0003868C00526D4386840F480703860FFF74A
:1015F0000DFD05463868C0051CD4FFF707FD401BEC
:101600000228F7D98AE0E068002840F20000C4F21E
:10161000472053D001210160FFF7F8FC054600BFC9
:10162000306880073FF575AFFFF7F0FC401B0228DC
:10163000F6D973E0A568306F052D51D0012D56D134
:1016400040F0010059E0012002B0BDE8F081002027
:10165000C4F247200021C0F8801EFFF7D7FC0546E2
:10166000706F80077FF55FAFFFF7D0FC401B02284B
:10167000F6D953E00027C4F2472700203866FFF769
:10168000C5FC022D05460DD1306880015DD5FFF700
:10169000BDFC401B02284FF00300F5D902B0BDE8A5
:1016A000F08100BF306880017FF56EAFFFF7AEFCC0
:1016B000401B02284FF00300F4D9EFE7002101603E
:1016C000FFF7A4FC054600BF306880077FF528AF10
:1016D000FFF79CFC401B02284FF00300F4D9DDE724
:1016E00040F004003067306F40F0010005E020F06A
:1016F00001003067306F20F004003067FFF786FC90
:10170000002D054641F2883713D000BF306F8007A7
:1017100012D4FFF77BFC401BB842F7D9032002B07C
:10172000BDE8F081FFF772FC401BB8424FF00300A8
:10173000B4D8306F8007F5D4B8F1000F3FF5F6AE9E
:10174000306C20F080503064F0E604F11C052FCDA1
:10175000084340EA8210D9034FF6FF729143A1F586
:10176000803140EA05600843706001203866FFF769
:101770004DFC0446306880013FF506AFFFF746FC9C
:10178000001B02284FF00300F4D987E770470000E0
:101790007047000090F83C20012A4FF0020255D01B
:1017A00010B5012380F83C3080F83D200268D2F863
:1017B00004E0D2F808C00C682EF07003234341F215
:1017C000FF74C4F20004A24253600DDC40F2FF73C8
:1017D000C4F200039A4215DCB2F1804F29D040F2E6
:1017E0000043C4F2000322E040F2FF33C4F20103DD
:1017F0009A4212DC41F60003C4F200039A4218D068
:10180000002312E040F60003C4F200039A4210D015
:1018100040F60043C4F2000309E044F20003C4F2BE
:1018200001039A4205D040F20043C4F201039A42F8
:1018300004D149682CF080031943916001210022F2
:1018400080F83D1080F83C20BDE8104010467047FD
:10185000002804BF0120704710B5044690F83D00F1
:1018600028B9002084F83C00204600F01FF8022030
:1018700084F83D002068211D00F0D4FD012084F88B
:10188000460084F83E0084F83F0084F8400084F865
:10189000410084F8420084F8430084F8440084F84E
:1018A000450084F83D00002010BD000010B582B056
:1018B000006840F20041C4F20001884213D0B0F148
:1018C000804F2BD10020019043F64000C4F202006B
:1018D00001681C2441F001010160006800F0010072
:1018E000019001980FE00020009043F64000C4F200
:1018F000020001681D2441F002010160006800F04F
:10190000020000900098204600210022FFF73CFCD6
:10191000204602B0BDE81040FFF724BC02B010BD65
:1019200090F83D1001291CBF01207047022180F86A
:101930003D10006841F2FF72C168C4F2000290429B
:1019400041F00101C1600DDC40F2FF71C4F2000101
:10195000884215DCB0F1804F29D040F20041C4F23A
:10196000000122E040F2FF31C4F20101884212DCA2
:1019700041F60001C4F20001884218D0002112E0B3
:1019800040F60001C4F20001884210D040F6004148
:10199000C4F2000109E044F20001C4F201018842EE
:1019A00005D040F20041C4F20101884206D18168AD
:1019B00001F00701062904BF00207047016841F0CB
:1019C000010101600020704790F83C20012A4FF08F
:1019D00002026ED080B5012380F83C3080F83D20B3
:1019E000D0F800C04FF67772DCF8083023EA020224
:1019F000CCF808200B684F2B28DC1F2B44DD202B54
:101A000045D0302B43D0402B40F0AC80D1F804E0DF
:101A1000C968DCF82030DCF8202022F00102CCF884
:101A20002020DCF8182022F0F00242EA011123F015
:101A30000A0242EA0E02CCF81810CCF82020DCF89A
:101A4000081041F0470121F0300127E06F2B32DD13
:101A5000B3F5005F73D0B3F5805F21D0702B40F0F9
:101A60008180D1E901E3C968DCF8082043EA0E036C
:101A700022F47F4243EA01211143CCF80810DCF83C
:101A8000081041F0770109E00BB1102B6AD1DCF8A6
:101A9000081021F07001194341F00701CCF808103B
:101AA0000022012180F83D10002180F83C10BDE8A3
:101AB000804010467047502B21D0602B52D1D1F876
:101AC00004E0C968DCF82030DCF8202022F01002A5
:101AD000CCF82020DCF8182022F4704242EA0131D0
:101AE00023F0A00242EA0E12CCF81810CCF8202005
:101AF000DCF8081041F0670121F01001CEE7D1F8C1
:101B000004E0C968DCF82030DCF8202022F0010273
:101B1000CCF82020DCF8182022F0F00242EA011173
:101B200023F00A0242EA0E02CCF81810CCF820206A
:101B3000DCF8081041F0570121F02001AEE7D1E9AF
:101B400001E3C968DCF8082043EA0E0322F47F426F
:101B500043EA01211143CCF80810DCF8081041F4E5
:101B600080419BE701229CE77047000070B5044666
:101B70000068C5680669B10716D515F0020113D0D3
:101B80006FF002010161012121778069800703D094
:101B90002046FFF7E9FF05E0204600F08DF82046DB
:101BA00000F0C8F900202077700718D515F0040060
:101BB00015D020686FF0040101610221217780694E
:101BC00010F4407F03D02046FFF7CEFF05E020460B
:101BD00000F072F8204600F0ADF9002020773007C1
:101BE00017D515F0080014D020686FF008010161C6
:101BF00004212177C069800703D02046FFF7B4FF96
:101C000005E0204600F058F8204600F093F9002047
:101C10002077F00618D515F0100015D020686FF069
:101C20001001016108212177C06910F4407F03D0C1
:101C30002046FFF799FF05E0204600F03DF82046DA
:101C400000F078F900202077F00718BF15F00100A8
:101C500002D1300609D412E020686FF00101016161
:101C6000204600F0F7F9300609D515F0800006D0BF
:101C700020686FF0800101612046FFF787FD700644
:101C800009D515F0400006D020686FF040010161D1
:101C9000204600F031FAB00658BF70BD15F02000A4
:101CA00008D021686FF0200220460A61BDE870402C
:101CB000FFF76EBD70BD00007047000090F83C302B
:101CC000012B04BF022070474FEAB2020123032A0E
:101CD00080F83C3000F2F8802DE9F043DFE802F0B4
:101CE00002AF3D7D036840F200461C6A1A6A24F088
:101CF000020422F001021A621A46D3F804C052F814
:101D000018EF8F6843F48065C4F20106B54244EAD7
:101D1000070405D1CF6824F00C0427F004073C43E6
:101D20000F68B54206D1D1E905582CF440762E4310
:101D300046EA080C2EF073063743C3F804C09F61CF
:101D40004F6809695F631C629F6947F008079F61DC
:101D50009F6927F004079F61B0E0036840F20048E4
:101D60001C6A1A6A24F4007422F480721A621A46F9
:101D7000D3F804C052F81CEF8F6843F48065C4F2B6
:101D80000108454544EA072408D1CF6840F2FF46E0
:101D90003F0224F4406427EA06063443D1F8009059
:101DA000454506D1D1E905562CF440572E4347EA64
:101DB000061C2EF0730747EA0907C3F804C0DF6169
:101DC0004F680969DF631C62DF6947F00807DF615C
:101DD000DF6927F00407DF6170E0036840F2004527
:101DE000D3F820C01A6A43F4806722F480521A6242
:101DF0001A465C6852F81C8FD1F800E08E68C4F275
:101E00000105AF4204D14D6924F4804444EA8514AD
:101E10002CF4005747EA063728F4E64646EA0E2631
:101E20005C60DE614E6809691E641F62DF6947F409
:101E30000067DF61DF6927F48067DF613DE00368E9
:101E400040F200481C6A1A6A24F0200422F01002B2
:101E50001A621A46D3F804C052F818EF8F6843F498
:101E60008065C4F20108454544EA071407D1CF68EC
:101E70006FF0400624F0C00406EA07163443D1F898
:101E80000090454506D1D1E905562CF440672E4314
:101E900047EA860C2EF4E64747EA0927C3F804C050
:101EA0009F614F6809699F631C629F6947F40067DF
:101EB0009F619F6927F480679F6109021368194336
:101EC00000231160BDE8F043002180F83C10184663
:101ED00070470000002804BF0120704710B5044679
:101EE00090F83D0028B9002084F83C00204600F01E
:101EF0001FF8022084F83D002068211D00F092FAAE
:101F0000012084F8460084F83E0084F83F0084F8FD
:101F1000400084F8410084F8420084F8430084F8CB
:101F2000440084F8450084F83D00002010BD000006
:101F300070470000704700004122082908BF402276
:101F4000042908BF3F22002908BF3E22825C012AE3
:101F50001CBF01207047022241B1082909D0042981
:101F600014BF80F8412080F83F2004E080F83E2034
:101F700001E080F84020006801F01F010122036A9F
:101F800002FA01F123EA01020262026A0A4341F203
:101F9000FF71C4F20001884202620BDC40F2FF7163
:101FA000C4F20001884213DCB0F1804F45D040F20A
:101FB000004115E040F2FF32C4F20102904214DC0D
:101FC00041F60003C4F20003984236D0002314E027
:101FD00040F60001C4F2000188422ED040F60041D4
:101FE000C4F20001884228D02EE044F20003C4F27B
:101FF0000103984221D040F20043C4F20103984209
:1020000022D1436C884243F400434364C6DD9042CE
:1020100007DC41F60001C4F2000188420DD0002126
:1020200007E044F20001C4F20101884205D040F209
:102030000041C4F20101884206D1816801F0070124
:10204000062904BF00207047016841F001010160CA
:102050000020704770B500240546C4F202040068F1
:10206000A4F57C41884208BFFEF7D6FF2868B0F18E
:10207000804F00D070BD40F21C16C2F200063068DE
:102080001021B0FA80F042092046FEF7B9FF30680F
:1020900020210138B0FA80F042092046FEF7B0FF57
:1020A000306840F2E455013000EBD07121F00101BD
:1020B000C2F20005401A29683060481C04292860D3
:1020C000B8BF70BD42F2AC64C0F600044FF46F407C
:1020D0002146D222FEF708F905A000F0BDFA4EF61F
:1020E00020702146D422FEF7FFF80020286070BD42
:1020F0007965657E0000000070470000FEE7000083
:1021000070B586B0002543F630000595CDE903553E
:10211000CDE901550095C4F202000168002441F0A8
:10212000800101600168C4F2020401F080010091A5
:10213000009900950168002241F0010101600068EA
:10214000302100F001000090009820463026FEF774
:1021500057FF0120CDE9020501A92046019604950B
:10216000FEF784FE06B070BD80B586B040F2400038
:102170000021C2F200004FF0804242F2CF0340F251
:10218000CF7CCDE90411CDE90211CDE90011C0E900
:102190000023C0E9021C01618161FFF759FB00289F
:1021A00018BFFEF79DF84FF48050029040F24000B7
:1021B000C2F2000002A9FFF707FC002818BFFEF7D3
:1021C0008FF80020CDE9000040F24000C2F200008C
:1021D0006946FFF7DFFA002818BFFEF781F840F2E2
:1021E0004000C2F20000FFF79BFB06B080BD00007C
:1021F00070B594B040F2880040F200450021C2F270
:10220000000040F2E733C4F200050D91CDE90B1157
:10221000CDE90911CDE90711CDE90511CDE903118A
:10222000CDE901115322C0E9021301618021C0E907
:1022300000528161FFF70CFB002818BFFEF750F831
:102240004FF480500A9040F28800C2F200000AA9C0
:10225000FFF7BAFB002818BFFEF742F840F28800EB
:10226000C2F20000FFF736FE002818BFFEF738F86C
:1022700040F288000024C2F2000008A9CDE9084419
:10228000FFF788FA002818BFFEF72AF86020CDE98A
:10229000010440F28800C2F2000001A90022039468
:1022A0000594FFF70BFD002818BFFEF719F840F260
:1022B0008804C2F2000401A920460422FFF7FEFCB4
:1022C000002818BFFEF70CF8204600210026FFF773
:1022D00033FE20460421FFF72FFE20681396A84204
:1022E000CDE9116610960F9601D014B070BD43F67B
:1022F00030000E96C4F20200016841F00101016055
:1023000000680FA900F001000E900E98C0200F90F9
:102310000220CDE91006CDE9126005F5FE30FEF78A
:10232000A5FD14B070BD0000FEE70000FEE7000050
:1023300070470000704700007047000070470000C1
:1023400070B592B006AC20463021FDF783FF002522
:1023500043F640000595CDE90355CDE901550095BB
:10236000C4F202000168022641F080510160006859
:1023700000F080500090009847F200000095C4F2F1
:102380000000016841F480410160006800F4804071
:1023900000900098012006904FF4803007904FF491
:1023A00080000D9019200E904FF4A870CDE90F0613
:1023B0000420119020460C96FFF73AF808B172B647
:1023C000FEE70F20CDE901064FF4A05004904FF432
:1023D0008050059001A805210395FEF711FF10B16B
:1023E00072B600BFFEE712B070BD00004EF6885016
:1023F000CEF20000016841F47001016070470000F6
:1024000040F24000C2F20000FFF7B0BB40F288008B
:10241000C2F20000FFF7AABB40F2D000C2F20000F7
:10242000FFF7A4BBB0B540F6FF3E0568C4F2000E4E
:1024300040F2004C7045C4F2010C0FDCB0F1804F4B
:1024400019D040F20043C4F20003984213D040F682
:102450000003C4F2000398420DD011E040F600439F
:10246000C4F20003984206D0604504D00023C4F2B1
:102470000103984204D14B6825F0700243EA02053B
:1024800041F6FF73C4F2000398420FDC704521DC73
:10249000B0F1804F41D040F20043C4F200039842B3
:1024A0003BD040F60003C4F2000334E043F6FF7370
:1024B000C4F2010398421EDC42F20003C4F200039E
:1024C00098422AD00023C4F20103984225D06045E7
:1024D00023D027E040F60043C4F2000398421CD00A
:1024E00041F60003C4F20003984216D041F60043BF
:1024F000C4F200030FE044F20003C4F20103984267
:102500000BD044F60003C4F20103984205D044F214
:102510000043C4F20103984204D1CB6825F4407211
:1025200043EA02050A688C684B69C46240F480641F
:102530008262644504BF09690163026825F0800175
:1025400042F0040219430260012242610160B0BD01
:10255000FEE7000040F20002C2F2000291421CBFFE
:102560004FF0FF30704700F041B800000F2001210C
:10257000FEF73AFAFEF7A2FBFEF75CFDFFF7E0FE7E
:10258000FFF7BEFDFFF7F0FDFFF732FE40F2181433
:1025900040F28805C2F20004C2F20005002020606B
:1025A00029684863C0F57A7088630A20FEF74AFC00
:1025B0002168481DB1F5797F2060F1DB3220FEF7FC
:1025C00041FC4FF47A70206029684863C0F57A7046
:1025D00088630A20FEF736FC2168481F0429206022
:1025E000F2DC3220FEF72EFCD8E70000B0B540F256
:1025F000F054C2F200042168072984BF4FF0FF3075
:10260000B0BD40F2E8534A1CC2F200030A2822601F
:1026100058541CBF082AB0BD4FF6006340F2E85181
:10262000C0F20203C2F2000105461846FDF724FF7E
:10263000284600212160B0BD02E008C8121F08C171
:10264000002AFAD170477047002001E001C1121F33
:10265000002AFBD17047000010B5044601E0FFF7E7
:1026600079FF14F8010B04490028F8D1BDE81040A7
:102670000A20FFF76FBF00000000002000000000EC
:102680000000000001020304060708090000000022
:10269000010203040100010140000000400100208C
:1026A00040050020C0050020000000002E2E2F4312
:1026B0006F72652F5372632F6D61696E2E63000018
:1026C0000027000800000020400000003826000815
:1026D0004027000840000020B809000048260008F4
:1026E00000000000000000000000000000000000EA
:1026F00000000000000000000000000000000000DA
:10270000000000000024F4000100000010000000A0
:1027100000000000000000000000000000000000B9
:1027200000000000000000000000000000000000A9
:102730000000000000000000000000000000000099
:040000050800018965
:00000001FF
